:02000004080AE8
:1000000000000A0838510A08000006000600050131
:080010000402350800000000A5
:04001800A4480A08E6
:1000200009480A4908B5884205D0094A824202D0E7
:10003000121A03F009FF0748074A0021121A03F0B9
:1000400011FF064808BD00BF00000020CC4F0A0881
:1000500044010020480100205107002051070020E2
:1000600070B502F023FC0025054E064CA41BA40825
:10007000A54200D170BD56F8043B98470135F7E71B
:10008000A04F0A08C04F0A0800F012B908B500F0E6
:1000900037FBBDE8084002F0CBBB01F047BA01F0E6
:1000A00045BA01F04BBA0078B0FA80F040097047C9
:1000B00001230370704700000122014B1A70704742
:1000C000FD01002010B50446006808B101F036FAC1
:1000D000204610BD08B501F0A1F920B1BDE80840E7
:1000E000002001F0ABB908BD08B5002001F0AEF961
:1000F00028B101F093F980F00100C0B208BD0120E1
:10010000FCE70023022201F071B90023042201F070
:100110006DB937B504469DF818501D438DF8005051
:100120003C2301F0D1FB204603B030BD10B58EB0AA
:100130000D4905A802F00AFB05A802F0BDFA044625
:1001400005A802F08FFA02F05FFECDE90201204619
:1001500002F05AFE054ACDE900014021044801F0B1
:100160000DFA0EB010BD00BFC4060020B8480A0842
:100170004C01002008B50121062002F028FC0021D6
:10018000062002F024FC0022014B1A7008BD00BFBB
:10019000FD01002010B500F089FF064C2368C01A4D
:1001A000B0F57A7F04D300F081FF2060012010BDFC
:1001B0000020FCE79C01002008B5FFF7EBFF10B919
:1001C00001F024F9F9E7BDE80840FFF7E3BF0000BC
:1001D00038B5224CE378012B84BF0023E3706368B9
:1001E000FF2B01D900236360A5681D49284603F051
:1001F00041FB20B928461B4903F05AFB08B11A4BB2
:10020000A360E5680021284603F034FB28B94FF0CD
:100210008041284603F04CFB10B14FF07E53E36061
:1002200023690122182B84BF0C2323616369182BD7
:1002300084BF12236361A369182B84BF1423A361B5
:10024000236A182B84BF14232362E369182B84BF0D
:100250001723E361054B1A7038BD00BFCC010020A5
:10026000000040C1000040410000A0C0FC0100208F
:1002700038B502F01DF8054602F02EF8044602F0EB
:1002800023F8231F062B0ED9E31E082B0DD80138A7
:100290002D1A04D50B2C14BF0020012038BD072DCA
:1002A00003DD032CF7E70120F8E70020F6E7000064
:1002B00030B5002585B00121072002F077FB012130
:1002C000022002F073FB0021112002F06FFB0121DC
:1002D000062002F06BFB64496448FFF716FF64498F
:1002E0006448FFF70EFF64496448FFF70EFF644956
:1002F0006448FFF70AFF64496448FFF706FF644952
:100300006448FFF7FEFE64496448FFF7FAFE64495B
:100310006448FFF7F6FE64496448FFF7F2FE64495B
:100320006448FFF7EEFE64496448FFF7EAFE64495B
:100330006448FFF7E6FE64496448FFF7E6FE644A56
:100340006449654801F0B5F9644A6549624801F0BD
:10035000B0F9644A6449604801F0ABF9634A644902
:100360005D4801F0A6F9634A63495B4801F0A1F9D1
:10037000624A6349584801F09CF9624A624956480A
:1003800001F097F9614A6249534801F092F9614AD4
:100390006149514801F08DF902F058FB30220120EB
:1003A0005E4900F093FEFFF713FF2A46294603A893
:1003B000039500F06BFE039B584C142B42D1012295
:1003C000636801336360564B1A70E06801F0D0FE39
:1003D000FFF74EFF00283FD001F0E4FEA06801F0D7
:1003E000A9FE01F081FF054601F045FF281A02F041
:1003F000F9FC1BA3D3E9002302F088FE494ACDE9AA
:1004000000010A21304801F0B9F801F05DFFD4E99C
:1004100007320528D8BF1346A361FFF7ABFE0023C0
:1004200001224149009311204FF0FF3301F002FCFB
:10043000FFF77CFE3D4B1A78012A1CBF02221A707E
:1004400005B030BD2A46294603A8039500F01EFEDC
:10045000039B8C2BB9D1B2E701F0B0FEBEE700BF21
:10046000000000000020AC404C010020E0480A08D9
:10047000D0010020E7480A08264C0A08F2480A087A
:1004800000000020FA480A081000002003490A086A
:10049000E00100200D490A08DC01002019490A0882
:1004A000E401002026490A08E801002035490A082D
:1004B000EC01002046490A08F0010020D4490A084E
:1004C000F401002057490A08B801002068490A08C9
:1004D00071490A085D050A0887160A087E490A0854
:1004E000390A0A088B490A08810B0A0899490A083F
:1004F000990C0A08A4490A08190D0A08B2490A0801
:10050000F50D0A08C1490A08950E0A08D0490A08DB
:100510002D0F0A08DD490A08710F0A08CC010020D6
:10052000FC010020EC490A08B9000A08C8010020B3
:1005300038B5046805467CB16368013B63605BB90C
:10054000236820469B689847A368013BA3601BB9BA
:1005500023682046DB689847284638BD30B51A49DD
:1005600085B0054601F04AFD0446C8B10122174B8B
:10057000DA70FFF721FE00F051FF60B100238DF823
:100580000030134B134A1B7802A81349FFF7C1FD33
:1005900003A8FFF7CDFF0120104B187005B030BD48
:1005A00028460F4901F02AFD0028F7D0074BDC70E0
:1005B000FFF702FE00F032FF0028ECD0044B8DF86C
:1005C00000401B78074ADFE7F6490A08CC01002003
:1005D00098010020F8490A081B4A0A08FC0100207B
:1005E000094A0A080B4A0A082DE9FF47FFF7E4FD0C
:1005F00000F014FF60B100238DF800301E4B02A8FC
:100600001B781E4A1E49FFF784FD03A8FFF790FFE1
:1006100000251C4C47F22F58E5706560FFF75AFD26
:10062000284600F06BFD4FF000098246002000F0E4
:1006300065FDB0EB0A0661EB0507B94508BFB0459B
:1006400005D3FFF751FD10B900F0E0FEEEE7FFF72C
:100650004BFD01220C4B1A7001F036FE012804D12B
:10066000E369A36104B0BDE8F08701F02DFE052821
:10067000F6DC236AF5E700BF98010020204A0A084B
:10068000284A0A08CC010020FC0100200E2330B5C6
:10069000144D15492A78154C03FB021220788FB0AF
:1006A00003FB001300922821114A04A800F066FF02
:1006B0002B782370FFF780FD0E4BDB787BB100F0C9
:1006C000ADFE60B100238DF800300B4B02A81B7803
:1006D0000A4904AAFFF71DFD03A8FFF729FF0FB081
:1006E00030BD00BFC801002024000020C20100204E
:1006F000364A0A08CC01002098010020444A0A0822
:10070000F0B5A04E85B03378022B33D0032B43D005
:10071000012B40F083809C4CE2782AB19B4B1B78E4
:10072000012B01D0FFF7B2FF00F0C0FC984B994AB3
:100730001B6812681344834270D26368032B00F372
:100740000B81FFF739FD00F069FE60B100238DF8E1
:100750000030914B914A1B7802A89149FFF7D9FCD0
:1007600003A8FFF7E5FE4FF4FA6000F027FF01F061
:1007700067FC53E0844BDB782BB1844B1B78022B56
:1007800001D0FFF783FF01F087FD864B1B6898427D
:1007900044D00323337041E07B4DEB782BB17B4B8E
:1007A0001B78032B01D0FFF771FF01F075FD7D4B26
:1007B000186000F033FE002843D001F06DFD08B949
:1007C000FFF712FFFFF7B2FC0223AF6A764C3370DB
:1007D000002F3CD139460220278002F0F8F8102281
:1007E0007249734803F0B1FB3946072002F0EFF875
:1007F00010227049704803F0A8FBFFF7DDFC00F001
:100800000DFE58B1644B8DF8007002A81B786B4A3E
:100810006B49FFF77EFC03A8FFF78AFE694B1B7844
:100820000BB1FFF7A7FC684C237843B102F00EF937
:1008300030220120544900F051FC0023237005B000
:10084000F0BD00F033FC524B18600123BDE701F00E
:1008500023FD2B69984241DB01F01EFDAB699842F4
:100860003CDA6778DFB901230220696A637002F01D
:10087000C7F8102255494E4803F067FBFFF79CFC70
:1008800000F0CCFD58B1444B8DF800701B78504AF5
:1008900002A84B49FFF73DFC03A8FFF749FE01F012
:1008A000FBFC6B69984233DA2378002B52D0002589
:1008B00007202946257002F08AF810223D493E485B
:1008C00003F043FBFFF778FC00F0A8FD002841D0BF
:1008D000314B8DF800501B783E4A34E06378002B92
:1008E000DDD0002702203946677002F070F8102230
:1008F0002E492F4803F029FBFFF75EFC00F08EFD28
:100900000028CCD0244B8DF800701B78324ABFE70A
:1009100001F0C2FCAB699842C6DA2578D5B901214D
:100920000720217002F053F810222C49224803F0CE
:100930000CFBFFF741FC00F071FD58B1164B8DF830
:1009400000501B78264A02A81D49FFF7E2FB03A8C6
:10095000FFF7EEFD02231DE701F08DFCE36AC01AEC
:10096000B0F5E15F40D9FFF727FC00F057FD002804
:100970003FF4F9AE00238DF80030074B194A1B787D
:10098000EAE600BFC8010020CC010020C20100201F
:10099000C40100202000002098010020F64A0A0827
:1009A0000A4B0A08B4010020A0010020554A0A0899
:1009B000100000205E4A0A0800000020664A0A086B
:1009C000914A0A08FD010020FC010020994A0A080A
:1009D000A14A0A08E24A0A08B44A0A08C84A0A08A8
:1009E000CF4A0A08104B0A08FFF7E6FB00F016FD95
:1009F00060B100238DF800300B4B02A81B780B4A26
:100A00000B49FFF786FB03A8FFF792FD4FF4FA604E
:100A100000F0D4FD0023636002F018F830220120BA
:100A2000044900F05BFBA2E6980100203E4B0A0857
:100A30000A4B0A08CC0100202DE9F047CAB08046D5
:100A4000FFF748FB002000F059FB4FF0000A8146F9
:100A500047F22F560027002000F050FBB0EB0904AE
:100A600061EB0A05AF4208BFA64205D3FFF73CFB86
:100A700010B900F0CBFCEEE7FFF736FB0A22D8F8FE
:100A8000000003A903F0EEFA00F10C03DBB2182B0F
:100A90005ED844B2204602F0FBFC314B986001F076
:100AA00049FB01222F4B1A7001F01EFC054601F094
:100AB000E2FB281A02F096F927A3D3E9002302F0FB
:100AC00025FB294ACDE900010A21284800F056FDFE
:100AD00000F0A4FC002834D023464FF48071244A4F
:100AE0000AA800F04BFDFFF767FB00F097FC60B130
:100AF00000238DF800301F4B06A81B781E490AAA58
:100B0000FFF707FB07A8FFF713FDFFF755FB00F002
:100B100085FCB0B101F0AFFB0246C31706A801F097
:100B200055FB00238DF80030124B069A1B781249B2
:100B300004A8FFF7EEFA05A8FFF7FAFC06A801F0F3
:100B4000E6F9032201200D4B1A704AB0BDE8F08788
:100B50000020FAE7AFF30080000000000020AC4066
:100B6000CC010020FC010020EC490A08B80100205B
:100B70005C4B0A0898010020704B0A08C80100204D
:100B800030B5CBB0044601F076FB0A22054603A936
:100B9000206803F067FAC3B2022B66D840B202F0B5
:100BA00077FC044601F0E4FA0122334B2046DC6076
:100BB000324B1A7002F028F9314ACDE900014FF4A6
:100BC00080710AA800F0DAFC01F038FB28B1FFF7C9
:100BD0004FFB002846D001F0E5FA01F085FB044602
:100BE00001F049FB201A02F0FDF821A3D3E900230C
:100BF00002F08CFA234ACDE900010A21224800F0D4
:100C0000BDFC00F00BFC38B300F008FC60B1002321
:100C10008DF800301D4B06A81B781D490AAAFFF766
:100C200078FA07A8FFF784FC00F0F8FBA0B12A4689
:100C3000EB1706A801F0CAFA00238DF80030134B19
:100C4000069A1B78124904A8FFF763FA05A8FFF774
:100C50006FFC06A801F05BF9032201200D4B1A700E
:100C60004BB030BD01F0AAFAB7E70020F8E700BFAB
:100C7000000000000020AC40CC010020FC0100205E
:100C8000754B0A08EC490A08B801002098010020B9
:100C9000704B0A08C801002000B5C7B00A220068DE
:100CA00003A903F0DFF9C3B2182B27D80121144A96
:100CB00043B21361134A06A811704FF48071124AAF
:100CC00000F05CFCFFF778FA00F0A8FB78B100F0C8
:100CD000A5FB60B100238DF800300C4B04A81B78F5
:100CE0000B4906AAFFF715FA05A8FFF721FC032216
:100CF0000120084B1A7047B05DF804FB0020FAE7AA
:100D0000CC010020FC010020864B0A08980100203D
:100D1000914A0A08C801002000B5C7B00A2200683D
:100D200003A903F09FF9C3B2172B24D80121134A5A
:100D300043B25361124A06A811704FF48071114AF0
:100D400000F01CFCFFF738FA00F068FB60B10023EC
:100D50008DF800300C4B04A81B780C4906AAFFF74D
:100D6000D8F905A8FFF7E4FB03220120084B1A700D
:100D700047B05DF804FB0020FAE700BFCC0100207B
:100D8000FC0100209D4B0A0898010020914A0A08A6
:100D9000C8010020012200B5104BC5B01A70104BDD
:100DA0004FF48071DB690F4A04A800F0E7FB00F004
:100DB00035FB60B100238DF800300B4B02A81B7887
:100DC0000A4904AAFFF7A5F903A8FFF7B1FB03221C
:100DD0000120074B1A7045B05DF804FBFC010020B0
:100DE000CC010020B34B0A0898010020914A0A0860
:100DF000C801002013B50A22006801A903F032F9E6
:100E0000C3B2182B12D80A4C40B2E06101F05CFA70
:100E1000012805D1E369A361FFF7BCFF02B010BD53
:100E200001F052FA0528F5DC236AF4E70020F5E723
:100E3000CC010020012200B5104BC5B01A70104B38
:100E40004FF480711B6A0F4A04A800F097FB00F072
:100E5000E5FA60B100238DF800300B4B02A81B7837
:100E60000A4904AAFFF755F903A8FFF761FB03221B
:100E70000120074B1A7045B05DF804FBFC0100200F
:100E8000CC010020D44B0A0898010020914A0A089E
:100E9000C801002013B50A22006801A903F0E2F896
:100EA000C3B2182B12D80A4C40B2206201F00CFADF
:100EB000012809DD01F008FA052805DC236AA36191
:100EC000FFF7B8FF02B010BDE369F8E70020F9E7CB
:100ED000CC01002000B5104BC5B04FF480715B6AA7
:100EE0000E4A04A800F04AFB00F098FA60B1002313
:100EF0008DF800300A4B02A81B780A4904AAFFF7B4
:100F000008F903A8FFF714FB03220120064B1A700F
:100F100045B05DF804FB00BFCC010020F54B0A088A
:100F200098010020914A0A08C801002007B50A224A
:100F300001A9006803F096F8FF2801460FD80122A6
:100F4000084B5862084B1A70084B5B7813B10220AB
:100F500001F056FDFFF7BEFF03B05DF804FB002073
:100F6000FAE700BFCC010020FC010020A001002016
:100F700000B5C7B00A22006803A903F073F8C3B232
:100F8000012B27D80122144B40B29862134B4FF427
:100F900080711A70124A134B002818BF1346124A68
:100FA00006A800F0EBFA00F039FA60B100238DF8E2
:100FB00000300E4B04A81B780D4906AAFFF7A9F8CC
:100FC00005A8FFF7B5FA032201200A4B1A7047B0B3
:100FD0005DF804FB0020FAE7CC010020FC010020B2
:100FE00060490A080E4C0A081A4C0A0898010020A9
:100FF000914A0A08C801002070B501240026124B4E
:1010000021461C70042000F039F80021204600F031
:10101000AFF9204600F084F90C4D0D4B2046AB6033
:101020002E60AE80AE7100F093F92846094A0A4955
:1010300001F07AFD3146204600F09AF92146BDE8DC
:101040007040042000F01AB8980100208C010020A4
:101050000000FFFF48010020C5000A0808B5024B48
:101060001B685B6C019308BDD001060808B5024BF4
:101070001B689B6C019308BDD001060808B5024BA4
:101080001B685B6E019308BDB801060808B5024BEA
:101090001B68DB6E019308BDB801060808B5024B5A
:1010A0001B685B68019308BD9C01060808B5024BEC
:1010B0001B685B69019308BD9C01060808B5024BDB
:1010C0001B689B6A019308BD9C01060808B5024B8A
:1010D0001B685B6C019308BD9C01060808B5024BB8
:1010E0001B689B6C019308BD9C01060808B5024B68
:1010F0001B689B6D019308BD9C01060808B5024B57
:101100001B68DB6D019308BD9C01060808B5024B06
:101110001B685B6E019308BD9C01060808B5024B75
:101120001B685B68019308BDB001060808B5024B57
:101130001B689B68019308BDB001060808B5024B07
:101140001B68DB68019308BDB001060808B5024BB7
:101150001B681B69019308BDB001060808B5024B66
:101160001B689B69019308BDB001060808B5024BD6
:101170001B68DB69019308BDB001060808B5024B86
:101180001B689B6A019308BDB001060808B5024BB5
:101190001B689B6F019308BDB001060808B5024BA0
:1011A0001B681B6E019308BDAC01060808B5024B15
:1011B0001B685B6E019308BDAC01060808B5024BC5
:1011C0001B689B6E019308BDAC01060808B5024B75
:1011D0001B68DB6E019308BDAC01060808B5024B25
:1011E0001B681B6F019308BDAC01060808B5024BD4
:1011F0001B685B6F019308BDAC01060808B5034B83
:101200001B68D3F88030019308BD0000AC010608CC
:1012100008B5024B1B68DB69019308BDB4010608E1
:1012200008B5024B1B681B6A019308BDB401060890
:1012300008B5024B1B689B69019308BDC4010608F1
:1012400008B5024B1B685B6A019308BDC401060820
:1012500008B5024B1B689B6A019308BDC4010608D0
:1012600008B5024B1B68DB6A019308BDC401060880
:1012700008B5024B1B681B6B019308BDC40106082F
:1012800008B5024B1B685B6B019308BDC4010608DF
:1012900008B5024B1B689B6B019308BDC40106088F
:1012A00008B5024B1B681B6C019308BDC4010608FE
:1012B00008B5024B1B681B68019308BDD8010608DE
:1012C00008B5024B1B681B69019308BDD8010608CD
:1012D00008B5024B1B685B69019308BDD80106087D
:1012E00008B5024B1B689B69019308BDD80106082D
:1012F00008B5024B1B68DB69019308BDD8010608DD
:1013000008B5024B1B681B6A019308BDD80106088B
:1013100008B5024B1B689B6C019308BDC001060811
:1013200008B5024B1B681B6D019308BDC001060880
:1013300008B5024B1B685B6F019308BDC00106082E
:1013400008B5024B1B681B68019308BDA401060881
:1013500008B5024B1B685B68019308BDA401060831
:1013600008B5024B1B685B69019308BDA401060820
:1013700008B5024B1B68DB6A019308BDA40106088F
:1013800008B5024B1B68DB6C019308BDA40106087D
:1013900008B5024B1B685B6D019308BDA4010608EC
:1013A00008B5024B1B689B6D019308BDA40106089C
:1013B00008B5034B1B68D3F89030019308BD0000BB
:1013C000A401060808B5034B1B68D3F89C300193B1
:1013D00008BD0000A401060808B5034B1B68D3F83C
:1013E000B430019308BD0000A401060808B5024B03
:1013F0001B681B68019308BDCC01060808B5024BA9
:101400001B685B68019308BDCC01060808B5024B58
:101410001B689B68019308BDCC01060808B5024B08
:101420001B685B69019308BDCC01060808B5024B37
:101430001B681B6A019308BDCC01060808B5024B66
:101440001B68DB6A019308BDCC01060808B5024B96
:101450001B681B6B019308BDCC01060808B5024B45
:101460001B68DB6B019308BDCC01060808B5024B75
:101470001B685B68019308BDC801060808B5024BEC
:101480001B689B68019308BDC801060808B5024B9C
:101490001B68DB68019308BDC801060808B5024B4C
:1014A0001B681B69019308BDC801060808B5024BFB
:1014B0001B685B69019308BDC801060808B5024BAB
:1014C0001B689B69019308BDC801060808B5024B5B
:1014D0001B68DB69019308BDC801060808B5024B0B
:1014E0001B681B6A019308BDC801060808B5024BBA
:1014F0001B681B6B019308BDC801060808B5024BA9
:101500001B685B6B019308BDC801060808B5024B58
:101510001B681B6C019308BDC801060808B5024B87
:101520001B685B6C019308BDC801060808B5024B37
:101530001B681B68019308BDA001060808B5024B93
:101540001B685B68019308BDA001060808B5024B43
:101550001B689B68019308BDA001060808B5024BF3
:101560001B681B69019308BDA001060808B5024B62
:101570001B689B69019308BDA001060808B5024BD2
:101580001B68DB69019308BDA001060808B5024B82
:101590001B68DB6A019308BDA001060808B5024B71
:1015A0001B681B6B019308BDA001060808B5024B20
:1015B0001B685B6C019308BDA00106080021FFF7C2
:1015C000CFBE10B5836804460BB901F0B6FAC36804
:1015D0009847A3681BB1032221462046984720461E
:1015E000BDE81040102101F0A4BA704700207047F8
:1015F00010B50446102101F09CFA204610BD08B534
:10160000FFF7F6FF08BD10B58368044613B1032247
:1016100001469847204610BD002230B54FF69C7415
:10162000026084808D888C800C68858004600A60EC
:1016300030BD10B504460068FFF780FF204610BD9E
:1016400038B5C468F4B12378022B03D104F10C003F
:10165000FFF7EFFF656835B12846FFF7D4FF10218B
:10166000284601F066FAA56835B12846FFF7CBFF9A
:101670001021284601F05DFA2046BDE838401421CB
:1016800001F057BA38BD10B588B00446684600F07E
:1016900088FC694604A800F0A6FC04A8A0470446FC
:1016A00004A800F034FC684600F031FC204608B085
:1016B00010BD1FB500231024CDE902010192694637
:1016C0001A461846ADF80230ADF80040FFF796FE16
:1016D00004B010BD0B68036013B15A6801325A6040
:1016E000704773B50E46044656F8043B0D4601A8F4
:1016F00031460093FFF7EEFF009B019A2360002321
:10170000626001A801930093FEF712FF3046FEF7D6
:101710000FFF2846082101F00CFA204602B070BDE8
:1017200013B56C460B46024603C884E8030093E8F1
:10173000030082E8030094E8030083E8030002B09A
:1017400010BD826810B50AB901F0F7F9C368BDE8A9
:101750001040184708B5006800F11001FFF7F1FFCD
:1017600008BD826810B50AB901F0E7F9C368BDE8A1
:101770001040184708B5006800F11001FFF7F1FFAD
:1017800008BD000038B500230446036010200D4654
:10179000FEF783FC28B10123C0E90133024BC56089
:1017A00003602060204638BD384C0A0838B5002355
:1017B00083608B6804460D462BB102229847EB6884
:1017C000E360AB68A360204638BD0000F0B589B087
:1017D00004686846FFF720FF4FF00203D4E84F2F5C
:1017E000002A03D1C4E8413F0029F7D125D104F1F3
:1017F0000C0569462846FFF70FFF0123BFF35B8FF7
:1018000063700020BFF35B8F04F1080353E8006F9F
:1018100043E80002002AF9D1BFF35B8F6EB1FFF7F6
:10182000AFFD78B129463046FFF78BFF3046FFF712
:10183000EAFE1021304601F07CF96846FFF7F9FE18
:1018400009B0F0BD314602A8FFF7B0FFE068B4F977
:10185000105008B102F044FB06901020ADF81C5067
:10186000FEF71BFC0546E8B1002787601820FEF74D
:1018700014FC044688B10146876002A8FFF750FFB8
:10188000049BA268A360059B0492E26806A9E3603A
:1018900004F110000592FFF7BFFE084B2C60EB60CF
:1018A000074BAB6006A8FFF7C4FE02A8FFF7ABFE2C
:1018B000002229460348FFF76BFDB7E755170A08D2
:1018C000ED190A08C3150A082DE9F0478AB0054644
:1018D0000C46174698469DF84890FFF79FFD07AEC7
:1018E000824638BB4FF62E73059005A93046ADF8F9
:1018F0001830FFF791FE1420FEF7CFFB044648B1E5
:10190000022303700123C0E901AA437031460C3061
:10191000FFF782FE2846214640F8044BFFF732FFCE
:101920003046FFF786FE05A8FFF783FE28460AB07B
:10193000BDE8F0870C234FF0000A1420CDE908AA77
:101940000793FEF7AAFB014628B1C0E901AA80F877
:1019500000A080F801A004A80391FFF713FF224B19
:1019600008200893FEF799FB824628B1039B04A93F
:1019700040F8043BFFF7AEFE42463946204600964B
:101980005FFA89F3CDF824A0FFF750FDB8B9039BA7
:101990005B7803F0FF0293B94FF69C7305A903A887
:1019A0000592ADF81830FFF711FF05A8FFF741FECB
:1019B00005A80999FFF795FE06A8FEF7B9FD039B58
:1019C00004A906A80593FFF785FE059B069A2B60E0
:1019D00000236A6006A806930593FEF7A9FD04A8F4
:1019E000FEF7A6FDA2E700BFB11A0A08022AF8B561
:1019F000054607D0032A18D0012A01D10B680360DD
:101A00000020F8BD18200E68FEF747FB044650B1D1
:101A10003146FFF7CBFE3069B6F9147008B102F019
:101A20005FFA2061A7822C60EAE70468002CE7D007
:101A300004F11000FFF7FDFD2046FFF7E4FD18213B
:101A4000204601F076F8DBE738B5002383608B6829
:101A500004460D462BB102229847EB68E360AB6861
:101A6000A360204638BD022A70B5044607D0032A79
:101A700012D0012A01D10B680360002070BD142030
:101A80000E68FEF70AFB054620B13146FFF7DCFF82
:101A9000337C2B742560F0E70468002CEDD02046E1
:101AA000FFF7B1FD1421204601F043F8E5E70000FF
:101AB000F0B5044689B00D4601A81146FFF711FEA6
:101AC000A4B124B21DB1284602F00AFA054601A8C5
:101AD00003A90395ADF81040FFF778FE03A8FFF7C0
:101AE000A8FD02A8FEF724FD09B0F0BD0123019D69
:101AF000D5E84F2F002A03D1C5E8413F0029F7D18F
:101B0000EFD12B73BFF35B8F6B70BFF35B8F2B1D1C
:101B100053E8006F43E80042002AF9D1BFF35B8F1E
:101B2000002EDED02046FFF72BFC074660B1304682
:101B300005F10C01FFF715FE3046FFF764FD10219B
:101B4000304600F0F6FFCCE7314603A8FFF77CFFF4
:101B50002B7B10208DF81C30FEF79FFA0546D0B184
:101B600087601420FEF799FA044678B10146876031
:101B700003A8FFF7D5FD059BA268A360069B05920D
:101B8000E268E3609DF81C3006922374064B2C60DB
:101B9000EB60064BAB6003A8FFF735FD002229463A
:101BA0000348FFF7F5FBC7E775170A08671A0A0825
:101BB000C3150A087047F8B5064615460C468F1837
:101BC000BC4206D0336830469B6814F8011B984726
:101BD000F6E72846F8BD0022007CFFF7DFBA0021B7
:101BE000007CFFF7E3BA0021007CFFF7E7BA002191
:101BF000007CFFF7EBBA0021007CFFF7EFBA10B5CD
:101C00000446142100F095FF204610BD10B54FF496
:101C10007A73044608460021C4E90113034B1146B8
:101C200023602074FFF7EAFA204610BD544C0A08DE
:101C3000004700002DE9FF4100241D460F46904655
:101C40000646FFF793FA0423A5428DF80C30A8BF8F
:101C50009DF82830ADF80D408DF80F40A4BF03ACBF
:101C60008DF80E303A464346304606490094A8BFE8
:101C70008DF80D50FFF772FAB0FA80F0400904B009
:101C8000BDE8F081311C0A08704710B504461821E0
:101C900000F04FFF204610BDF8B50E46002400F1BD
:101CA0000807051D17F8011D0A22304600F0EFF85D
:101CB000AF42044401D12046F8BD002CF2D02E21C1
:101CC000304600F0E1F80444ECE7000010B50446AB
:101CD000044B1122002140F8043B02F0C3F82046D7
:101CE00010BD00BF7C4C0A080346074A10B543F8F4
:101CF000042B01F1100251F8044B914243F8044BBC
:101D0000F9D10A781A7010BD7C4C0A08024AC0E961
:101D100000210422027570477C4C0A0810B59DF81A
:101D2000084044EA0324042344EA024444EA0164E8
:101D30004460037510BD000037B5044D05609DF883
:101D400018500095FFF7EAFF03B030BD7C4C0A083D
:101D5000014B024A1A60704700020020884C0A08B2
:101D6000002340681A46FFF781BB00220221406829
:101D7000FFF78CBB002240681146FFF77FBB0022B3
:101D800040681146FFF78ABB002340681A4619468F
:101D9000FFF78CBB002340681A461946FFF78EBB3D
:101DA00000214068FFF7B2BB00214068FFF7B6BBD7
:101DB0000022406881F00101FFF788BB00224068E3
:101DC000FFF794BB002240681146FFF797BB002243
:101DD00040681146FFF782BB70B515468EB00446C9
:101DE00008A8FFF773FF1122002103A802F03AF8B8
:101DF0000026284602F08FF80A4B009681B25B68F5
:101E0000284603AAFFF784FA30B131462046FFF78F
:101E10007DFF20460EB070BD204603A9FFF764FF8A
:101E2000F7E700BFC4060020024B034A1A600022F5
:101E30005A60704704020020944C0A08F8B5064620
:101E40000D4600248F18BD420CD0336830469B6885
:101E500015F8011B9847031E01DB1C44F3E7002C17
:101E600008BF1C462046F8BD70B505460C4608461E
:101E700049B102F050F82B68024621462846BDE8D9
:101E80007040DB68184770BD03689B6818470023E3
:101E9000012A98BF0A2230B58BB00C468DF8243049
:101EA00009A92546B4FBF2F404FB1253DBB2092B5B
:101EB00094BF30333733DBB2AA4201F8013DF0D989
:101EC000FFF7D2FF0BB030BD10B50446FFF79BFB08
:101ED000204610BD00230348034A0449836000F0F4
:101EE00023BE00BF0C02002048010020C91E0A08C2
:101EF00070B5002604460D4640F8086FFFF7AEF8AF
:101F000028462570FFF784F92046666070BD10B53D
:101F100004460068FFF712FB204610BD10B50446CA
:101F2000006808B1FFF70AFB0023C4E9013323600E
:101F300010BD38B504460D4600680131FFF706FBB9
:101F400010B1C4E90005012038BD10B5036804468E
:101F500023B143688B4201D3012010BD2046FFF717
:101F6000E8FF0028F9D0A368002BF5D12268137090
:101F7000F2E770B50E46114604461546FFF7E5FF39
:101F800020B92046FFF7CAFF204670BD2A463146D9
:101F90002068A56001F058FF00212268A368D15491
:101FA000F2E738B5002304460D46C0E900338360EC
:101FB000037339B1084601F0AEFF294602462046B8
:101FC000FFF7D7FF204638BD884210B50B460446C0
:101FD00004D0096821B19A68FFF7CBFF204610BDF5
:101FE000FFF79CFFFAE7002310B50446C0E9003371
:101FF00083600373FFF7E8FF204610BD08B58268D1
:102000003AB921B10878B0FA80F0400900E0012027
:1020100008BD006809B90078F5E701F04FFFF2E765
:1020200007B50B4600210246009101208C21FFF7E5
:10203000D3F903B05DF804FB01460020FFF7F0BFC1
:102040000020FFF7F9BF00000222002010B5084B66
:10205000084C1A60084B2060A080A071A360FFF7B5
:1020600077F92046BDE81040044A054900F05CBD00
:10207000280200201C0200200000FFFF4801002071
:10208000C5000A082DE9F041154ADFF86080D2E961
:102090000032C01842EB0101124A8CB0D2E9003282
:1020A000C61841EB0207D8E90023BB4208BFB24281
:1020B00013D003A96846CDE9006701F0CFFD089B66
:1020C000094D03F26C7303AC08930FCC0FC50FCC12
:1020D0000FC5C8E9006723682B600CB0BDE8F0812C
:1020E0006002002058020020300200206802002018
:1020F00008B50020FFF7AAF928B1FFF78FF980F0A3
:102100000100C0B208BD0120FCE7000008B5FFF7E0
:10211000B9FF024B9869013008BD00BF30020020B2
:1021200008B5FFF7AFFF024B1869013008BD00BFCB
:102130003002002010B50A49044601F09BFB68B943
:102140002046084901F0B4FB40B90749204601F098
:10215000F3F901F0B7FB054BC3E9000110BD00BF67
:10216000000040C1000060410000614560020020A5
:1021700010B50021044601F07DFB70B94FF080419D
:10218000204601F095FB40B90449204601F0D4F9FE
:1021900001F098FB024BC3E9000110BD000061454E
:1021A00070000020034BD3E90001034BC3E9000199
:1021B000704700BF7000002058020020002000215E
:1021C000014BC3E9000170475802002030B50446B6
:1021D000184893B0D0E90010521840EB030316489A
:1021E0000025D0E90010521840EB0303CDE900238D
:1021F000242200210DEB020001F034FE09A96846FB
:1022000001F02CFD1622294603A8029501F02AFEB2
:1022100002A909A801F0EEFC02A801F07CFE12ABB5
:10222000184400F8415C02A92046FFF7BAFE204698
:1022300013B030BD600200205802002010B500200D
:10224000FEF754FF0446A0B9FFF77AF8012810D131
:102250002046FFF7A5F860B9FFF74AFF10B9FFF76E
:10226000D5F8F9E7FFF744FFBDE810400020FEF77E
:102270003DBF204610BD1FB5FFF7E0FF1022002133
:10228000684601F0EFFD00216846FEF73FFF009829
:1022900005B05DF804FB000008B5FFF7ECFFC117BF
:1022A000FFF7F0FE014B986808BD00BF3002002028
:1022B00008B5FFF7E0FFC117FFF7E4FE014BD86850
:1022C00008BD00BF3002002008B5FFF7D4FFBDE80D
:1022D0000840C117FFF71ABF08B5FFF7CCFFBDE8EC
:1022E0000840C117FFF71CBF08B5FFF7C4FF034B39
:1022F000034A1B6812681344184408BD600200209A
:1023000058020020024B1A68024B1A60704700BF47
:102310006C0000202C02002070474174704708B503
:10232000007CFEF7BDFF20EAE07008BD08B5007C28
:10233000FEF78EFF20EAE07008BD08B5007CFEF7CE
:1023400097FF40EAE07008BD08B5007CFEF788FF03
:1023500040EAE07008BD007CFEF792BF70B5467C95
:1023600004460D462EB12946207CBDE87040FEF79C
:1023700067BF007CFEF794FF0028F4DC304670BD98
:1023800010B50446142100F0D4FB204610BD000017
:102390004FF0000C10B50446084611464FF47A720F
:1023A000C4E901C2044A20742260012262741A4600
:1023B000FEF73EFF204610BDEC4C0A0838B50D4D27
:1023C0002978BFF35B8F11F0010411D12846FDF786
:1023D0006AFE68B12146084A084B0948FFF7D8FF52
:1023E0002846FDF765FE074A0749054800F09CFBB3
:1023F000034838BD7002002074020020F80200205B
:102400007C0300204801002019230A08417470470A
:10241000704708B50021007CFEF762FF40EAE070DB
:1024200008BD08B50121007CFEF75AFF40EAE070C4
:1024300008BD08B5007CFEF74BFF20EAE07008BD40
:1024400008B5007CFEF73CFF20EAE07008BD38B517
:102450000446007C0D46FEF73BFF002801DC607C53
:1024600028B12946207CFEF743FF20EAE07038BD02
:10247000007CFEF745BF10B50446142100F059FB5F
:10248000204610BD10B54FF47A730446084600216B
:10249000C4E90113044B20742360012311466374C3
:1024A000FEF706FF204610BD1C4D0A0810B5044675
:1024B0001422002101F0D6FC054B20466360054B39
:1024C000E36040F2011323818123238210BD00BF0A
:1024D000C0030020C104002030B50F4D87B001A813
:1024E000FFF7E4FF2978BFF35B8F11F0010410D1EF
:1024F0002846FDF7D8FD60B1214601AA0748FFF73D
:10250000C1FF2846FDF7D4FD054A0649034800F0FF
:102510000BFB024807B030BD900300209803002059
:102520004801002011240A0810B504461422002195
:1025300001F098FC054B20466360054BE36040F2D8
:10254000011323818123238210BD00BF4205002097
:102550004306002010B50F4C86B001A8FFF7E4FF3A
:102560002378BFF35B8FDB0710D42046FDF79BFD7C
:1025700060B1012101AA0848FFF784FF2046FDF75A
:1025800097FD064A0649044800F0CEFA024806B014
:1025900010BD00BF94030020AC03002048010020C0
:1025A00011240A0870470120704700224068114634
:1025B000FEF774BF10B50446242100F0BAFA204695
:1025C00010BDF0B5154689B011220E460446002113
:1025D00003A801F047FC284601F09DFC002781B2CA
:1025E00073682846009703AAFEF792FE30B1394679
:1025F0002046FFF78BFB204609B0F0BD204603A91B
:10260000FFF772FBF7E7002240681146FEF766BF4E
:10261000002240681146FEF771BF00224068FEF7B5
:1026200065BF0022406881F00101FEF74FBF002323
:1026300040681A461946FEF741BF002340681A4613
:102640001946FEF733BF002240681146FEF716BF59
:10265000002202214068FEF719BF002340681A4695
:10266000FEF704BF08B583895BB14069002808DB29
:1026700000F00EFF044901F013F8044900F05CFF7C
:1026800008BD0348FCE700BF00FF7F470000C842C9
:10269000000080BF08B583894BB10069B0F1004FDD
:1026A00005D000F0F5FE034900F0FAFF08BD002058
:1026B000FCE700BF0000C84208B583895BB1006A2F
:1026C000002808DB00F0E4FE044900F0E9FF0449BB
:1026D00000F032FF08BD0348FCE700BF00FF7F4762
:1026E0000000C842000080BF08B583894BB18069F3
:1026F000B0F1004F05D000F0CBFE034900F0D0FF51
:1027000008BD0020FCE700BF0000C84270B50C46C1
:10271000064600F10C050FCC0FC594E8030085E8D0
:10272000030033690120B3F1004F16BF6422022376
:1027300093FBF2F37360B369B3F1004F16BF6422E9
:10274000002393FBF2F3B36070BD00002DE9F0416C
:1027500000254FF0020818260F46144B3246294632
:10276000C0E9018586B0036004460C3001F07AFBB5
:102770002A4629467868FEF791FE80B132462946FE
:10278000684601F06FFB2A4669462846ADF80060AE
:10279000FEF7CEFD38B969462046FFF7B7FF204661
:1027A00006B0BDE8F081C4F80480F8E7884D0A0857
:1027B0000422024B5A60024A1A607047C406002085
:1027C0004C4D0A08014B1860704700BF780000208C
:1027D00008B5134B43B1FFF77FFE03681B699847A9
:1027E000002801DDAFF300800E4B43B1FFF7E6FD9B
:1027F00003681B699847002801DDAFF300800A4B8E
:102800000BB1AFF30080094B43B1FFF7A3FE0368A0
:102810001B699847002801DDAFF3008008BD00BFA9
:1028200000000000000000000000000000000000A8
:1028300008B5FFF7CDFFFEF739FC014B186008BD66
:10284000E40600200248034A0349121A01F0FCBAC8
:102850000040024004400240C84F0A08002307B568
:102860001A466FF077010093FEF7ACFD03B05DF8F8
:1028700004FB000007B543880A2B08D0502B0BD16E
:10288000094B1B684BB103B05DF804EB1847FFF729
:10289000E5FF03B05DF804FB00231A466FF07701F3
:1028A0000093FEF78FFDF4E7D006002038B5124CF8
:1028B00000211248FEF77AFE114D2368AB420CBF8F
:1028C000012200220F4B1A7002D0FFF7BBFF2560D8
:1028D000FEF7E4FB044601F0CDFA0B4B13B12046A2
:1028E000AFF3008000210848FEF7B8FDBDE838408E
:1028F00000210648FEF75CBD00400240C5270A08DB
:102900001E1C279ACC0600200000000075280A082B
:1029100010B50446806808B1FEF7A8FB204610BD3C
:10292000172870B5044601D9002070BDA0F10D0331
:10293000022B0BD9012826D800F0B6F80021007C24
:10294000FEF754FC80F00100C0B2EEE7134E317880
:10295000BFF35B8F11F001050FD13046FDF7A3FBEC
:1029600058B129460E48FFF7C3FA3046FDF7A0FBE1
:102970000C4A0D490A4800F0D7F8094B1878FEF7C1
:102980004FFC0028D0D1123C012C05D8FFF716FDD2
:10299000007CFEF77DFCD5E70120C6E7D4060020C9
:1029A000D80600204801002011290A08172838B548
:1029B00004460D460AD8FF2908D0FFF7B1FF28B119
:1029C00029462046BDE83840FEF7B0BB38BD38B5D3
:1029D00004460D46FEF7B2FBFF2810D0062804D8A7
:1029E0004D2323FA00F0C30709D42046FFF798FFD0
:1029F00028B129462046BDE83840FEF7A7BB38BDC0
:102A000038B504460D46FFF78BFFF0B10421204690
:102A1000FEF784FB042805D12046A9B2BDE8384062
:102A2000FEF7ACBB02212046FEF778FB02280CD152
:102A30002046FEF783FB012801D0042805D1294652
:102A40002046BDE83840FEF7A1BB38BD10B5084CA4
:102A50002378BFF35B8FDB0708D42046FDF723FB09
:102A600020B1FEF72BFB2046FDF722FB014810BDED
:102A7000E8060020EC060020002370B520254380E6
:102A80001423084E044603803146856005612846BC
:102A900000F051F831466060284600F04CF8E060E4
:102AA000204670BDA44D0A0830B50F4D87B0297877
:102AB000BFF35B8F11F0010413D12846FDF7F3FA41
:102AC00078B101A8FFF7D8FF214601AA0748FFF710
:102AD0009DF82846FDF7ECFA054A0649034800F040
:102AE00023F8024807B030BDF0060020F4060020AD
:102AF00048010020B51B0A08002313B5074C1A46ED
:102B0000194620460093FFF717F92046044A054965
:102B100002B0BDE8104000F007B800BF0807002071
:102B200048010020891C0A080B460146184601F09E
:102B300087B8FDF7B6BAFDF7B2BA08B5FEF726FDBD
:102B400081F0004102E000BF83F0004330B54FEA5E
:102B500041044FEA430594EA050F08BF90EA020FCB
:102B60001FBF54EA000C55EA020C7FEA645C7FEA5E
:102B7000655C00F0E2804FEA5454D4EB5555B8BF81
:102B80006D420CDD2C4480EA020281EA030382EAF2
:102B9000000083EA010180EA020281EA0303362D84
:102BA00088BF30BD11F0004F4FEA01314FF4801C57
:102BB0004CEA113102D0404261EB410113F0004F69
:102BC0004FEA03334CEA133302D0524263EB430320
:102BD00094EA050F00F0A780A4F10104D5F1200EBE
:102BE0000DDB02FA0EFC22FA05F2801841F1000119
:102BF00003FA0EF2801843FA05F359410EE0A5F1ED
:102C000020050EF1200E012A03FA0EFC28BF4CF01D
:102C1000020C43FA05F3C01851EBE37101F00045D3
:102C200007D54FF0000EDCF1000C7EEB00006EEBE0
:102C30000101B1F5801F1BD3B1F5001F0CD349086A
:102C40005FEA30004FEA3C0C04F101044FEA4452C1
:102C500012F5800F80F09A80BCF1004F08BF5FEA48
:102C6000500C50F1000041EB045141EA050130BD28
:102C70005FEA4C0C404141EB0101013C28BFB1F53A
:102C8000801FE9D291F0000F04BF01460020B1FA85
:102C900081F308BF2033A3F10B03B3F120020CDA58
:102CA0000C3208DD02F1140CC2F10C0201FA0CF036
:102CB00021FA02F10CE002F11402D8BFC2F1200C9B
:102CC00001FA02F120FA0CFCDCBF41EA0C01904051
:102CD000E41AA2BF01EB0451294330BD6FEA04049A
:102CE0001F3C1CDA0C340EDC04F11404C4F1200285
:102CF00020FA04F001FA02F340EA030021FA04F397
:102D000045EA030130BDC4F10C04C4F1200220FAED
:102D100002F001FA04F340EA0300294630BD21FA2B
:102D200004F0294630BD94F0000F83F4801306BFF1
:102D300081F480110134013D4EE77FEA645C18BFE5
:102D40007FEA655C29D094EA050F08BF90EA020F7C
:102D500005D054EA000C04BF1946104630BD91EA74
:102D6000030F1EBF0021002030BD5FEA545C05D177
:102D70004000494128BF41F0004130BD14F58004B6
:102D80003CBF01F5801130BD01F0004545F0FE412A
:102D900041F470014FF0000030BD7FEA645C1ABF5F
:102DA000194610467FEA655C1CBF0B46024650EA96
:102DB000013406BF52EA033591EA030F41F40021C2
:102DC00030BD00BF90F0000F04BF0021704730B548
:102DD0004FF4806404F132044FF000054FF000011D
:102DE00050E700BF90F0000F04BF0021704730B5DE
:102DF0004FF4806404F1320410F0004548BF4042B3
:102E00004FF000013EE700BF42004FEAE2014FEA07
:102E100031014FEA02701FBF12F07F4393F07F4FE2
:102E200081F06051704732F07F4208BF704793F0E5
:102E30007F4F04BF41F40021704730B54FF46074F8
:102E400001F0004521F000411CE700BF50EA0102FB
:102E500008BF704730B54FF000050AE050EA0102A4
:102E600008BF704730B511F0004502D5404261EB14
:102E700041014FF4806404F132045FEA915C3FF455
:102E8000D8AE4FF003025FEADC0C18BF03325FEAF2
:102E9000DC0C18BF033202EBDC02C2F1200300FAA3
:102EA00003FC20FA02F001FA03FE40EA0E0021FAC8
:102EB00002F11444BDE600BF70B54FF0FF0C4CF4B6
:102EC000E06C1CEA11541DBF1CEA135594EA0C0F68
:102ED00095EA0C0F00F0DEF82C4481EA030621EAA3
:102EE0004C5123EA4C5350EA013518BF52EA0335DE
:102EF00041F4801143F4801338D0A0FB02CE4FF090
:102F00000005E1FB02E506F00042E0FB03E54FF0BF
:102F10000006E1FB03569CF0000F18BF4EF0010EB7
:102F2000A4F1FF04B6F5007F64F5407404D25FEAB3
:102F30004E0E6D4146EB060642EAC62141EA555166
:102F40004FEAC52040EA5E504FEACE2EB4F1FD0CA8
:102F500088BFBCF5E06F1ED8BEF1004F08BF5FEA26
:102F6000500E50F1000041EB045170BD06F00046D8
:102F700046EA010140EA020081EA0301B4EB5C0485
:102F8000C2BFD4EB0C0541EA045170BD41F480117D
:102F90004FF0000E013C00F3AB8014F1360FDEBFA2
:102FA000002001F0004170BDC4F10004203C35DA7E
:102FB0000C341BDC04F11404C4F1200500FA05F301
:102FC00020FA04F001FA05F240EA020001F00042A2
:102FD00021F0004110EBD37021FA04F642EB060118
:102FE0005EEA430E08BF20EAD37070BDC4F10C0442
:102FF000C4F1200500FA04F320FA05F001FA04F206
:1030000040EA020001F0004110EBD37041F10001F1
:103010005EEA430E08BF20EAD37070BDC4F12005FC
:1030200000FA05F24EEA020E20FA04F301FA05F264
:1030300043EA020321FA04F001F0004121FA04F20C
:1030400020EA020000EBD3705EEA430E08BF20EADC
:10305000D37070BD94F0000F0FD101F00046400016
:1030600041EB010111F4801F08BF013CF7D041EA98
:10307000060195F0000F18BF704703F0004652009C
:1030800043EB030313F4801F08BF013DF7D043EA6D
:103090000603704794EA0C0F0CEA135518BF95EA23
:1030A0000C0F0CD050EA410618BF52EA4306D1D1AA
:1030B00081EA030101F000414FF0000070BD50EAC9
:1030C000410606BF1046194652EA430619D094EA53
:1030D0000C0F02D150EA013613D195EA0C0F05D13D
:1030E00052EA03361CBF104619460AD181EA030191
:1030F00001F0004141F0FE4141F470014FF0000049
:1031000070BD41F0FE4141F4780170BD70B54FF0E3
:10311000FF0C4CF4E06C1CEA11541DBF1CEA135563
:1031200094EA0C0F95EA0C0F00F0A7F8A4EB050445
:1031300081EA030E52EA03354FEA013100F088803C
:103140004FEA03334FF0805545EA131343EA126305
:103150004FEA022245EA111545EA10654FEA0026BA
:103160000EF000419D4208BF964244F1FD0404F573
:10317000407402D25B084FEA3202B61A65EB0305CF
:103180005B084FEA32024FF480104FF4002CB6EB8C
:10319000020E75EB030E22BFB61A754640EA0C000C
:1031A0005B084FEA3202B6EB020E75EB030E22BF4C
:1031B000B61A754640EA5C005B084FEA3202B6EB8D
:1031C000020E75EB030E22BFB61A754640EA9C004C
:1031D0005B084FEA3202B6EB020E75EB030E22BF1C
:1031E000B61A754640EADC0055EA060E18D04FEADA
:1031F000051545EA16754FEA06164FEAC30343EA7A
:1032000052734FEAC2025FEA1C1CC0D111F4801F46
:103210000BD141EA00014FF000004FF0004CB6E73F
:1032200011F4801F04BF01430020B4F1FD0C88BFDE
:10323000BCF5E06F3FF6AFAEB5EB030C04BFB6EBE9
:10324000020C5FEA500C50F1000041EB045170BDDC
:103250000EF0004E4EEA113114EB5C04C2BFD4EB09
:103260000C0541EA045170BD41F480114FF0000E8D
:10327000013C90E645EA060E8DE60CEA135594EA09
:103280000C0F08BF95EA0C0F3FF43BAF94EA0C0F0C
:103290000AD150EA01347FF434AF95EA0C0F7FF481
:1032A00025AF104619462CE795EA0C0F06D152EAD5
:1032B00003353FF4FDAE1046194622E750EA4106B9
:1032C00018BF52EA43067FF4C5AE50EA41047FF4CA
:1032D0000DAF52EA43057FF4EBAE12E74A0011D27C
:1032E00012F5001211D20DD56FF47873B3EB625260
:1032F0000ED44FEAC12343F0004343EA505323FA6C
:1033000002F070474FF00000704750EA013002D1E0
:103310004FF0FF3070474FF00000704780F00040E2
:1033200002E000BF81F0004142001FBF5FEA41039D
:1033300092EA030F7FEA226C7FEA236C6AD04FEA9D
:103340001262D2EB1363C1BFD218414048404140E2
:10335000B8BF5B42192B88BF704710F0004F40F494
:10336000000020F07F4018BF404211F0004F41F4B0
:10337000000121F07F4118BF494292EA030F3FD07C
:10338000A2F1010241FA03FC10EB0C00C3F120038F
:1033900001FA03F100F0004302D5494260EB40001E
:1033A000B0F5000F13D3B0F1807F06D340084FEA89
:1033B000310102F10102FE2A51D2B1F1004F40EB7E
:1033C000C25008BF20F0010040EA030070474900E6
:1033D00040EB0000013A28BFB0F5000FEDD2B0FA83
:1033E00080FCACF1080CB2EB0C0200FA0CF0AABFA6
:1033F00000EBC25052421843BCBFD0401843704744
:1034000092F0000F81F4000106BF80F40000013249
:10341000013BB5E74FEA41037FEA226C18BF7FEA20
:10342000236C21D092EA030F04D092F0000F08BF62
:103430000846704790EA010F1CBF0020704712F049
:103440007F4F04D1400028BF40F00040704712F188
:1034500000723CBF00F50000704700F0004343F0ED
:10346000FE4040F4000070477FEA226216BF084623
:103470007FEA23630146420206BF5FEA412390EAE6
:10348000010F40F4800070474FF0000304E000BFDC
:1034900010F0004348BF40425FEA000C08BF70478D
:1034A00043F0964301464FF000001CE050EA010251
:1034B00008BF70474FF000030AE000BF50EA010266
:1034C00008BF704711F0004302D5404261EB410153
:1034D0005FEA010C02BF84460146002043F0B64378
:1034E00008BFA3F18053A3F50003BCFA8CF2083A9D
:1034F000A3EBC25310DB01FA02FC634400FA02FCA6
:10350000C2F12002BCF1004F20FA02F243EB0200AC
:1035100008BF20F00100704702F1200201FA02FC0E
:10352000C2F1200250EA4C0021FA02F243EB020001
:1035300008BF20EADC7070474FF0FF0C1CEAD05245
:103540001EBF1CEAD15392EA0C0F93EA0C0F6FD006
:103550001A4480EA010C400218BF5FEA41211ED0E4
:103560004FF0006343EA501043EA5111A0FB0131D0
:103570000CF00040B1F5000F3EBF490041EAD371A5
:103580005B0040EA010062F17F02FD2A1DD8B3F121
:10359000004F40EBC25008BF20F00100704790F090
:1035A000000F0CF0004C08BF49024CEA502040EAE2
:1035B00051207F3AC2BFD2F1FF0340EAC2507047A8
:1035C00040F400004FF00003013A5DDC12F1190FE6
:1035D000DCBF00F000407047C2F10002410021FA58
:1035E00002F1C2F1200200FA02FC5FEA310040F170
:1035F000000053EA4C0308BF20EADC70704792F0E9
:10360000000F00F0004C02BF400010F4000F013A20
:10361000F9D040EA0C0093F0000F01F0004C02BF1B
:10362000490011F4000F013BF9D041EA0C018FE78A
:103630000CEAD15392EA0C0F18BF93EA0C0F0AD090
:1036400030F0004C18BF31F0004CD8D180EA0100B6
:1036500000F00040704790F0000F17BF90F0004F4F
:10366000084691F0000F91F0004F14D092EA0C0F31
:1036700001D142020FD193EA0C0F03D14B0218BFC4
:10368000084608D180EA010000F0004040F0FE400A
:1036900040F40000704740F0FE4040F440007047A6
:1036A0004FF0FF0C1CEAD0521EBF1CEAD15392EA25
:1036B0000C0F93EA0C0F69D0A2EB030280EA010C15
:1036C00049024FEA402037D04FF0805343EA1111AE
:1036D00043EA10130CF000408B4238BF5B0042F10C
:1036E0007D024FF4000C8B4224BF5B1A40EA0C00B1
:1036F000B3EB510F24BFA3EB510340EA5C00B3EBE3
:10370000910F24BFA3EB910340EA9C00B3EBD10FD0
:1037100024BFA3EBD10340EADC001B0118BF5FEA22
:103720001C1CE0D1FD2A3FF650AF8B4240EBC2504B
:1037300008BF20F0010070470CF0004C4CEA50200C
:103740007F32C2BFD2F1FF0340EAC250704740F45B
:1037500000004FF00003013A37E792F0000F00F04D
:10376000004C02BF400010F4000F013AF9D040EACB
:103770000C0093F0000F01F0004C02BF490011F45F
:10378000000F013BF9D041EA0C0195E70CEAD15357
:1037900092EA0C0F08D142027FF47DAF93EA0C0F3E
:1037A0007FF470AF084676E793EA0C0F04D14B0222
:1037B0003FF44CAF08466EE730F0004C18BF31F0D4
:1037C000004CCAD130F000427FF45CAF31F00043CE
:1037D0007FF43CAF5FE700BF4FF0FF3C06E000BF67
:1037E0004FF0010C02E000BF4FF0010C4DF804CD8A
:1037F0004FEA40024FEA41037FEA226C18BF7FEA9A
:10380000236C11D001B052EA530C18BF90EA010F9B
:1038100058BFB2EB030088BFC81738BF6FEAE1702A
:1038200018BF40F0010070477FEA226C02D15FEAC6
:10383000402C05D17FEA236CE4D15FEA412CE1D032
:103840005DF8040B704700BF844608466146FFE7F9
:103850000FB5FFF7C9FF002848BF10F1000F0FBDDB
:103860004DF808EDFFF7F4FF0CBF012000205DF8D4
:1038700008FB00BF4DF808EDFFF7EAFF34BF012059
:1038800000205DF808FB00BF4DF808EDFFF7E0FFF2
:1038900094BF012000205DF808FB00BF4DF808ED43
:1038A000FFF7D2FF94BF012000205DF808FB00BFA6
:1038B0004DF808EDFFF7C8FF34BF012000205DF888
:1038C00008FB00BF10B500210446FFF7D3FF20B965
:1038D0002046BDE8104000F009B804F1004000F0B7
:1038E00005F8404261EB410110BD00BFD0B5FFF7C4
:1038F0008BFA00220B4B06460F46FFF7DDFAFFF767
:10390000EDFC0446FFF75EFA0022074BFFF7D4FAFE
:1039100002460B4630463946FFF716F9FFF7DEFC44
:103920002146D0BD0000F03D0000F0412DE9F047F8
:10393000089E0D4604468E46002B40F083808A4246
:10394000174647D9B2FA82F34BB1C3F1200105FA09
:1039500003FE20FA01F19F4041EA0E0E9C404FEA1F
:103960001748BEFBF8FC1FFA87F908FB1CE20CFBAA
:1039700009F0210C41EA024290420AD9BA180CF12E
:10398000FF3180F01881904240F21581ACF1020CB9
:103990003A44121AB2FBF8F008FB102200FB09F1BE
:1039A000A4B244EA0244A14209D93C1900F1FF3211
:1039B00080F00381A14240F2008102383C44641A45
:1039C000002140EA0C401EB10022DC40C6E9004262
:1039D000BDE8F08702B9FFDEB2FA82F3002B4FD1C7
:1039E0008D1A01214FEA124E1FFA82F8B5FBFEFC38
:1039F0000EFB1C5508FB0CF0220C42EA0545A842C0
:103A000007D97D190CF1FF3202D2A84200F2E980F9
:103A100094462D1AB5FBFEF00EFB105508FB00F87E
:103A2000A4B244EA0544A04507D93C1900F1FF328D
:103A300002D2A04500F2D9801046A4EB080440EA67
:103A40000C40C0E78B4208D9002E00F0B180002165
:103A5000C6E900050846BDE8F087B3FA83F10029FE
:103A60004BD1AB4202D3824200F2B980841A65EB9B
:103A7000030301209E46002EAAD0C6E9004EA7E708
:103A80009F40C3F12002D1404FEA174EB1FBFEF038
:103A90001FFA87F80EFB101124FA02F29D4000FB7A
:103AA00008FC2A43150C45EA0145AC4504FA03F429
:103AB00009D97D1900F1FF3180F08F80AC4540F2CB
:103AC0008C8002383D44A5EB0C05B5FBFEF10EFBE6
:103AD000115C01FB08F995B245EA0C45A94507D9E7
:103AE0007D1901F1FF3274D2A94572D902393D44E2
:103AF000A5EB090541EA004178E7C1F120078B40B9
:103B000022FA07FC4CEA030C25FA07F44FEA1C4E94
:103B1000B4FBFEF91FFA8CF80EFB194420FA07F3E8
:103B200009FB08FA8D401D432B0C43EA0444A245CF
:103B300002FA01F200FA01F309D91CEB040409F1BD
:103B4000FF3048D2A24546D9A9F102096444A4EB4A
:103B50000A04B4FBFEF00EFB104400FB08FAADB201
:103B600045EA0444A24508D91CEB040400F1FF35E2
:103B70002DD2A2452BD90238644440EA0940A0FB6B
:103B80000289A4EB0A044C45C6464D4619D316D00B
:103B90005EB1B3EB0E0264EB050404FA07F722FAF8
:103BA00001F31F43CC40C6E900740021BDE8F08753
:103BB000314630460CE78C46EBE61046FFE64345BF
:103BC000E6D2B8EB020E69EB0C050138E0E72846B7
:103BD000D3E711468CE78146B9E7084673E7084604
:103BE00049E7ACF1020C3D4413E702383C4424E7BA
:103BF000704700BF10B50C46416986B001F26C7188
:103C0000036982690491016803EB430303914168EE
:103C100002EB4202029181680191C1682046009145
:103C200004490B4404490A440449FDF797FC204623
:103C300006B010BDDA4D0A08C54D0A08A54D0A08A0
:103C400010B504460448134620B10A460220214616
:103C5000AFF3008010BD00BF000000002DE9F0416F
:103C60000C46074600F00AFD21468046384600F023
:103C700009FD436904469A0703F26C7605D1642274
:103C800096FBF2F302FB13637BBB4FF4C87396FB06
:103C9000F3F503FB1565B5FA85F56D093022684B20
:103CA00002FB053500F016FB00F020FB654B1B689E
:103CB00053B3D8F80430B34219D1D7E90067D8E933
:103CC0000823D8F80010D1B9964277EB030323DA22
:103CD000D8E91223964277EB0303B4BF01230023F4
:103CE00023621BDBD8F828101AE00125D6E73046FE
:103CF00000F048FA0028E0D14FF0FF3304E096428C
:103D000077EB030302DA00232362EBE7D8E91223FF
:103D1000964277EB0303F6DA01232362D8F85010BA
:103D20004FF4616391FBF3F63C2003FB161393FB06
:103D3000F0F200FB123061682368891AA2681B1A2E
:103D4000921B3B2B23606160A26034DD0131616016
:103D50003C3B236063683B2B33DD0132A2603C3B7C
:103D60006360A368172B32DDE269183B0132E26120
:103D7000A269A3600132062AC8BF0022A261E268DC
:103D800023690132E26055F823108A420EDD0B2BC5
:103D9000A2EB0102E26003F1010205BF00226369A8
:103DA0002261013302BF22616361E26100F098FA8F
:103DB0002046BDE8F081002BCCDA013961603C334C
:103DC000C7E7002BCDDA013AA2603C33C8E7002BED
:103DD000ECDAE2691833013AE261A269A360013AC0
:103DE00048BF0622A261E268013AE260002ADDD102
:103DF0002369013B05D42361236955F82330E3602F
:103E0000D4E70B23236163695A1E626103F26B726C
:103E1000930705D1642192FBF1F301FB132363B9EE
:103E20004FF4C87192FBF1F301FB1323B3FA83F350
:103E30005B0903F5B673E361DEE70123F9E700BF31
:103E4000004E0A083C0700200A44914200F1FF336B
:103E500000D1704710B511F8014B914203F8014FA2
:103E6000F9D110BD03460244934200D1704703F8D4
:103E7000011BF9E738B50D4B04461D68AB6B7BB9E8
:103E80001820FDF753FB0A4A0A4BA863C0E9002338
:103E9000094B012283600B2383810023C0E90423A3
:103EA0000022AB6B1C615A6138BD00BF7800002056
:103EB0000E33CDAB34126DE6ECDE050010F8012BAD
:103EC00011F8013B012A28BF9A42F7D0D01A704757
:103ED000034611F8012B03F8012B002AF9D1704792
:103EE000024B0146186800F003B800BF78000020BC
:103EF00070B5044608460D4600F00DF8461C3146E4
:103F00002046FDF74BFB044618B132462946FFF721
:103F10009BFF204670BD034613F8012B002AFBD1FE
:103F2000181A0138704710B56AB10139841810F8B1
:103F3000013B11F8012F934203D1A04201D0002B85
:103F4000F5D1981A10BD1046FCE7034610B50139AB
:103F500032B111F8014F013A03F8014B002CF7D1AF
:103F600000211A44934200D110BD03F8011BF9E768
:103F70002DE9F0478C468646394E60461CF8014BC9
:103F8000A55D15F00805F8D12D2C33D14FF00108AF
:103F90009CF8004000F1020C002B5CD0102B0CD1DF
:103FA000302C0AD19CF8000000F0DF0058284DD1D9
:103FB00010239CF801400CF1020C002608F1004788
:103FC000013FB7FBF3F9304603FB197AA4F1300542
:103FD000092D18D82C46A34224DD751C07D0814535
:103FE0001DD301D1A2451ADB012600FB03401CF8BA
:103FF000014BEBE72B2C08BF9CF80040A84608BFFC
:1040000000F1020CC8E7A4F14105192D01D8373C95
:10401000E1E7A4F16105192D04D8573CDBE74FF027
:10402000FF36E4E7731C06D122233846CEF8003071
:1040300042B9BDE8F087B8F1000F00D04042002A35
:10404000F7D00EB10CF1FF311160F2E73024002BF4
:10405000B3D10823B1E7302CA4D00A23ADE700BFC9
:104060009D4E0A0813460A46014602480068FFF7BB
:104070007FBF00BF780000202DE9F0438C468646C4
:104080003A4E60461CF8014BA55D15F00805F8D1C5
:104090002D2C34D14FF001089CF8004000F1020CA7
:1040A000002B5ED0102B0CD1302C0AD19CF80000D4
:1040B00000F0DF0058284FD110239CF801400CF18C
:1040C000020C4FF0FF37B7FBF3F7002503FB07F9AE
:1040D00028466FEA0909A4F13006092E18D834469B
:1040E000A34224DD002D1FDB87421DD301D1A14552
:1040F0001ADB012500FB03401CF8014BEBE72B2CDE
:1041000008BF9CF80040A84608BF00F1020CC7E7B2
:10411000A4F14106192E01D8373CE1E7A4F161066C
:10412000192E04D8573CDBE74FF0FF35E4E7002DAC
:1041300007DA22234FF0FF30CEF8003042B9BDE855
:10414000F083B8F1000F00D04042002AF7D00DB143
:104150000CF1FF311160F2E73024002BB1D10823BC
:10416000AFE7302CA2D00A23ABE700BF9D4E0A0870
:1041700013460A46014602480068FFF77DBF00BFAC
:10418000780000202DE9F74F804600F077FA40F2E2
:10419000B173984540F397806FF4F66340F26D1267
:1041A00043449B10A8F2B27502FB05356FF0630221
:1041B000A8F26D7393FBF2F36FF4C8621D444FF4E1
:1041C000C8734244B2FBF3F298FBF3F71544642240
:1041D00003FB178798FBF2F6B7FA87FC04464FF00B
:1041E000070E02FB168608F00303C0F804804FEAAE
:1041F0005C1C00F1500B0093227A63694A2A28D193
:104200000099EA1801B906B90FBB3B2BD4BF0023B4
:10421000012313445A1EA3692C49283401FB02329E
:10422000236813441A46DB1744E90223A345E3D16C
:10423000D0E90845D0E91223944275EB0303B4BFDB
:10424000012300230360012003B0BDE8F08F0023A9
:10425000DFE7442A01D1EA18DDE7009A6ABB002EA5
:104260000CBFE0464FF001084FF0300AE2684FF013
:10427000000901922A4616490AFB0818A8F1040809
:10428000019909F10109494558F829A017DC02F103
:10429000040898FBFEF9C9EBC909A8EB0909B3EBBF
:1042A0000909236948BF09F10709013BC3EBC303AF
:1042B0004B44534505DA1A44ADE7E046D4E752448F
:1042C000DEE7073BF5E70020BEE700BF80510100B5
:1042D000004E0A08014800F085BA00BF4F070020D1
:1042E000014800F081BA00BF4F070020014B186859
:1042F00000F002B8780000202DE9F04F8DB007469D
:1043000000F0BCF9B0490546384600F0AFF9AF4EB1
:10431000044670B9AE4BAF4A1860AF4B1860AF4B54
:104320003068C3E90022FDF709F934600DB0BDE83B
:10433000F08F316800295FD13068FDF7FFF8204623
:10434000FFF7E9FD411C3846FDF728F930600028E9
:1043500057D123780AAE3A2B08BF013433462046A2
:104360009F4AA049FDF702F90028DFDD0A9BE71804
:10437000E35C2D2B49D14FF0FF3401374FF000089B
:104380000DF1200A0DF11E0B33463846CDE9016AC6
:1043900095490396CDF800B007AAADF81E80ADF898
:1043A0002080FDF7E3F84045C0DD3C21BDF81E301C
:1043B000BDF82020DFF83C9201FB03224FF461613D
:1043C000BDF81C3001FB03235C43854BAC62834C7E
:1043D0004A4623600A9B83491F4438463346FDF70B
:1043E000C5F8404517DC2368AA6A6360784B1A60F9
:1043F000794BC3F8008099E7FFF760FD00289BD157
:1044000094E72146FFF764FDA3E72B2B4FF001044F
:1044100008BF0137B2E70A9BC4F80490FC18FB5CA4
:104420002D2B40F08C804FF0FF37013400232046C5
:10443000ADF81C30ADF81E30ADF820300A93CDE950
:1044400002A63346CDE900B6674907AAFDF78EF804
:1044500000287ADCAF6AA7F561672F654FF0000985
:104460002F460A9B1C4423782C2B08BF013494F858
:104470000080B8F14D0F7AD10DF12603CDE901632B
:1044800009AB009320463346584903960DF12202AA
:10449000FDF76CF803287FF449AFBDF822104B1EDE
:1044A0000B2B3FF643AFBDF82420531E042B3FF6E1
:1044B0003DAFBDF82630062B3FF638AFC7E90312F3
:1044C00087F808807B610A9B04EB03080223ADF8A0
:1044D0001C300023ADF81E30ADF820300A9398F858
:1044E00000302F2B09D133464046CDE902A6CDE955
:1044F00000B63F4907AAFDF739F83C21BDF81E3048
:10450000BDF82020283701FB03224FF46161BDF87C
:104510001C3001FB032347F8103C0A9C4444B9F1CA
:10452000000F21D06868FFF72DFEAA6A284B1A6099
:104530002B6D9B1A18BF0123274A1360F6E62B2B1D
:104540004FF0010708BF013470E73C21BDF81E3071
:10455000BDF8202001FB03224FF46161BDF81C303F
:1045600001FB03235F4378E74FF001097BE7B8F1D4
:104570004A0F0ABF4346442301340A2220460BA9AE
:104580000593FFF7F5FDDDF82C80059BA045ADF800
:10459000260014D14D23B9F1000F07D103212B724E
:1045A0000223C5F81490C5E903138FE70B2285F8A1
:1045B00030300123C5E90D230023EB6386E780B289
:1045C0003B72786182E700BF604E0A08380700201E
:1045D00040070020634E0A083C070020DC00002052
:1045E0002B070020674E0A088A4E0A08764E0A08F2
:1045F000894E0A08200700202DE9F84F0746894612
:10460000164600F0F3F8184B1C689A4634B14B4636
:10461000984613F8011B39B13D29F9D1384600F00D
:10462000EBF80020BDE8F88FA8EB0908A34654F882
:10463000040B0028F2D042464946FFF774FC0028DC
:10464000F4D154F8043C03EB080513F808303D2B73
:10465000ECD1DAF800303846ABEB03039B10336043
:1046600000F0CAF8681CDDE74001002007B501AA88
:10467000FFF7C2FF03B05DF804FB0000004870477D
:10468000E80000202DE9F041D0E900670C46002346
:10469000304639464F4A00F0B5F839460546002302
:1046A00030464C4A00F0AEF84FF46161002ABCBFBE
:1046B00002F5A83202F5C072B2FBF1F301FB13223E
:1046C0004FF03C01A360B2FBF1F301FB1322226027
:1046D0004FF0070205F52F20ACBF00F66C2000F666
:1046E0006B206360C31C93FBF2F2C2EBC2029B1A05
:1046F00048BF073300283849A361BDBFA0F50E337A
:10470000A3F52C7393FBF1F190FBF1F148F6AC6249
:1047100040F2B45C314B40F26D1703FB0100B0FB7B
:10472000F2F2B0FBFCF30244D21A2D4B6426B0FB2C
:10473000F3F3D31AB3FBF7F5B3FBFCF3B5FBF6F2D7
:10474000D31A0344992007FB153303EB830C0CF1B8
:10475000020CBCFBF0F74FF0050878430230B0FBC9
:10476000F8F003F1010EAEEB000040F2F95EF44503
:1047700094BF4FF0020C6FF0090C67444FF4C87CF3
:104780000CFB0151012F98BF0131B3F5997F0CD378
:10479000A3F59973E3610023A1F26C71E060C4E9B1
:1047A000047120462362BDE8F08115F0030F02D1A9
:1047B00006FB12525AB94FF4C876B5FBF6F206FB67
:1047C0001252B2FA82F252093B331344E2E7012259
:1047D000FAE700BF80510100B13A02004FC5FDFF6A
:1047E000B03A020070477047704770470148FFF7C2
:1047F000FABF00BF4E0700200148FFF7F6BF00BF19
:104800004E0700207BB972B90029BEBF00204FF0CF
:10481000004106E008BF00281CBF6FF000414FF0C8
:10482000FF30FFF7E5B9ADF1080C6DE904CE0029C2
:1048300009DB002B1ADBFFF779F8DDF804E0DDE98E
:10484000022304B07047404261EB4101002B1BDBA7
:10485000FFF76CF8DDF804E0DDE9022304B0404224
:1048600061EB4101524263EB43037047524263EBF9
:104870004303FFF75BF8DDF804E0DDE9022304B051
:10488000404261EB41017047524263EB4303FFF743
:104890004DF8DDF804E0DDE9022304B0524263EB99
:1048A0004303704721000A0861000A0889000A08CA
:1048B0008D000A08000000005769466920517561A3
:1048C0006C6974793A20252E303266252520537480
:1048D00072656E6774683A20252E30326625250091
:1048E0005369676E616C005265736574436F756ED2
:1048F000740052656C65617365006C6564506F7718
:1049000065720070756D70506F776572004C6564EC
:10491000204F6E20486F75720050756D70204F6E7D
:1049200020486F757200506F776572204F66662061
:10493000486F7572005765656B656E64204F6666DB
:1049400020486F7572005765656B646179204F660A
:104950006620486F757200466F756E7461696E20CF
:10496000456E61626C65640054696D655A6F6E6571
:1049700000566572626F73652D4D6F6465005365F7
:10498000742D54696D657A6F6E65005365742D449E
:1049900053544F6666736574005365742D50756D7E
:1049A000704F6E005365742D4C65644F6E486F7583
:1049B00072005365742D5765656B656E644F66664E
:1049C000005365742D5765656B6461794F666600A9
:1049D0005365742D50574D76616C756500456E6159
:1049E000626C65466F756E7461696E0025322E319A
:1049F0006620555443003100536574205665726239
:104A00006F7365204D6F6465003000436C656172A3
:104A1000656420566572626F7365204D6F64650032
:104A200052756E6E696E67004461696C7920436CE3
:104A300065616E75700046726F6D20257320746F0E
:104A4000202573005374617465205472616E73691C
:104A500074696F6E0050756D70204F6666004C650E
:104A600064204F666600466F756E7461696E204EF5
:104A70006F7420456E61626C6564205475726E655A
:104A8000642045766572797468696E67204F666642
:104A900000436F6E74726F6C0050756D70204F6EB6
:104AA000005475726E6564206F6E207468652050C6
:104AB000756D70005475726E6564206F6666207443
:104AC00068652050756D70004C6564204F6E005411
:104AD00075726E6564206F6E20746865204C454465
:104AE00073005475726E6564206F66662074686525
:104AF000204C454473004572726F72205374617488
:104B000065202D20526573657400537461746500CF
:104B1000546F6F6B206C6F6E672073696E636520D6
:104B20006C61737420776562686F6F6B2072657358
:104B3000706F6E7365202D20526573657400457229
:104B4000726F72205374617465202D20546F6F2032
:104B50006D616E79207265736574730054696D655B
:104B6000207A6F6E65206F66667365742025690014
:104B700054696D6500445354206F666673657420F4
:104B800025322E31660050756D70204F6E20486FB3
:104B900075722073657420746F202569004C6564FC
:104BA000204F6E20486F75722073657420746F20DB
:104BB0002569005765656B656E6420506F77657277
:104BC000204F666620486F75722073657420746F7D
:104BD000202569005765656B64617920506F7765A2
:104BE00072204F666620486F75722073657420745A
:104BF0006F2025690050756D702050574D207661EB
:104C00006C75652073657420746F202569004E6F84
:104C10007420456E61626C656400466F756E7461E8
:104C2000696E20257300302E34360000000000002D
:104C30000000000000000000EB150A08F1150A084A
:104C400041160A08FF150A08ED150A0800000000C1
:104C500000000000B51B0A08FF1B0A08D71B0A0842
:104C6000B71B0A08DF1B0A08E71B0A08EF1B0A0824
:104C7000F71B0A080000000000000000991C0A0849
:104C8000891C0A088B1C0A08617070000000000073
:104C900000000000611D0A086B1D0A08751D0A0846
:104CA0007F1D0A08891D0A08951D0A08A11D0A080A
:104CB000A91D0A08B11D0A08BD1D0A08C51D0A085C
:104CC000CF1D0A08D91D0A0825592D256D2D2564EB
:104CD0005425483A254D3A2553257A00617363746B
:104CE000696D6500000000000000000019230A083B
:104CF00081230A085D230A083D1E0A082D230A089D
:104D000049230A083B230A0857230A081B230A08D9
:104D10001F230A08000000000000000011240A08F8
:104D200077240A084F240A083D1E0A0841240A086D
:104D300013240A0823240A0871240A0833240A08C1
:104D40000D240A0800000000000000005B260A088D
:104D500051260A0847260A08AB250A083B260A08F6
:104D60002F260A08A11D0A08A91D0A0823260A08D9
:104D70001B260A0811260A0807260A08C3250A085E
:104D80000000000000000000A5250A08B5250A085B
:104D9000A7250A0865260A0895260A08B9260A08DA
:104DA000E9260A0800252E337320252E3373253378
:104DB0006420252E32643A252E32643A252E326440
:104DC0002025640A0053756E4D6F6E5475655765E6
:104DD000645468754672695361744A616E466562CF
:104DE0004D61724170724D61794A756E4A756C41C0
:104DF00075675365704F63744E6F7644656300004A
:104E00001F0000001C0000001F0000001E0000002A
:104E10001F0000001E0000001F0000001F00000017
:104E20001E0000001F0000001E0000001F00000008
:104E30001F0000001D0000001F0000001E000000F9
:104E40001F0000001E0000001F0000001F000000E7
:104E50001E0000001F0000001E0000001F000000D8
:104E6000545A00474D54002531305B5E302D392CAB
:104E70002B2D5D256E004D256875256E2E256875D8
:104E8000256E2E256875256E002F256875256E3ACE
:104E9000256875256E3A256875256E00002020204E
:104EA00020202020202028282828282020202020DA
:104EB00020202020202020202020202020881010AA
:104EC0001010101010101010101010101004040406
:104ED00004040404040404101010101010104141C4
:104EE00041414141010101010101010101010101B2
:104EF00001010101010101011010101010104242C6
:104F00004242424202020202020202020202020281
:104F10000202020202020202101010102000000021
:104F20000000000000000000000000000000000081
:104F30000000000000000000000000000000000071
:104F40000000000000000000000000000000000061
:104F50000000000000000000000000000000000051
:104F60000000000000000000000000000000000041
:104F70000000000000000000000000000000000031
:104F80000000000000000000000000000000000021
:104F90000000000000000000000000000000000011
:104FA000F90F0A08511D0A08291E0A08D51E0A0809
:104FB00049200A0805230A08B1270A08F92A0A081D
:084FC0006CE9FF7F0100000015
:044FC80000000000E5
:104FCC004C6564204F666600000000000000000085
:104FDC0050756D70204F66660000000000000000E8
:104FEC0030750000496E697469616C697A650000FE
:104FFC0000004572726F720000000000000000009B
:10500C0049646C6500000000000000000000436F64
:10501C006E74726F6C000000000000000000000055
:10502C00000000000000000000000000DC4C0A083A
:10503C00100E0000000000007C00002000000000AA
:10504C000000000000000000000000000000000054
:10505C000000000000000000000000000000000044
:10506C000000000000000000000000000000000034
:10507C000000000000000000000000000000000024
:10508C000000000000000000000000000000000014
:10509C00000000000000000000000000634E0A0841
:1050AC00634E0A0800000000010000000000000030
:1050BC004A0000000000000000000000000000009A
:1050CC0000000000000000000000000000000000D4
:1050DC0000000000000000004A000000000000007A
:1050EC0000000000000000000000000000000000B4
:1050FC0000000000000000000000000000000000A4
:04510C004407002034
:10511000FFFFFFFF00000102030405060708090A5C
:105120000B0C0D0E0F101112131415161718191A57
:085130001B1C1D1E1F2028009E
:04513800785634125F
:04000005080A0020C5
:00000001FF
