:02000004080AE8
:1000000000000A08584F0A08000006000600050113
:080010000402DB070000000000
:040018004C470A083F
:1000200009480A4908B5884205D0094A824202D0E7
:10003000121A03F05DFE0748074A0021121A03F066
:1000400065FE064808BD00BF00000020EC4D0A0810
:1000500044010020480100205107002051070020E2
:1000600070B502F09DFB0025054E064CA41BA408AC
:10007000A54200D170BD56F8043B98470135F7E71B
:10008000B44D0A08D44D0A0800F00EB908B500F0C6
:10009000A3FBBDE8084002F045BB01F0C9B901F07F
:1000A000C7B901F0CDB90078B0FA80F040097047C7
:1000B00001230370704700000122014B1A70704742
:1000C000FD01002010B50446006808B101F0B8F940
:1000D000204610BD08B501F033F920B1BDE8084055
:1000E000002001F03DB908BD08B5002001F040F93D
:1000F00028B101F025F980F00100C0B208BD01204F
:10010000FCE70023022201F003B937B504469DF84D
:1001100018501D438DF800503C2301F057FB20463A
:1001200003B030BD10B58EB00D4905A802F088FAB5
:1001300005A802F03BFA044605A802F00DFA02F009
:10014000B7FDCDE90201204602F0B2FD054ACDE936
:1001500000014021044801F093F90EB010BD00BF2A
:10016000C406002060470A084C01002008B50121A0
:10017000062002F0A6FB0021062002F0A2FB0022CE
:10018000014B1A7008BD00BFFD01002010B500F042
:1001900037FF064C2368C01AB0F57A7F04D300F00D
:1001A0002FFF2060012010BD0020FCE7A4010020EB
:1001B00008B5FFF7EBFF10B901F0BAF8F9E7BDE8B1
:1001C0000840FFF7E3BF000038B5224CE378012B6D
:1001D00084BF0023E3706368FF2B01D900236360B1
:1001E000A5681D49284603F099FA20B928461B49FD
:1001F00003F0B2FA08B11A4BA360E5680021284663
:1002000003F08CFA28B94FF08041284603F0A4FA95
:1002100010B14FF07E53E36023690122182B84BF95
:100220000C2323616369182B84BF12236361A369C4
:10023000182B84BF1423A361236A182B84BF1423B3
:100240002362E369182B84BF1723E361054B1A70FF
:1002500038BD00BFD4010020000040C10000404173
:100260000000A0C0FC01002038B501F09BFF05464E
:1002700001F0ACFF044601F0A1FF231F062B0ED9AD
:10028000E31E082B0DD801382D1A04D50B2C14BFF2
:100290000020012038BD072D03DD032CF7E70120E6
:1002A000F8E70020F6E7000030B5002585B0012111
:1002B000022002F0F5FA0121072002F0F1FA0021F4
:1002C000112002F0EDFA0121062002F0E9FA0023E4
:1002D00004225F495F4801F01BF85F495F48FFF760
:1002E00010FF002304225E495E4801F011F800234C
:1002F00004225D495D4801F00BF8002304225C49AB
:100300005C4801F005F85C495C48FFF7FAFE5C497F
:100310005C48FFF7F6FE5C495C48FFF7F2FE5C497B
:100320005C48FFF7EEFE5C495C48FFF7EAFE5C4A7A
:100330005C495D4801F03FF95C4A5D495A4801F06B
:100340003AF95C4A5C49584801F035F95B4A5C4926
:10035000554801F030F95B4A5B49534801F02BF9ED
:100360005A4A5B49504801F026F95A4A5A494E48C0
:1003700001F021F9594A5A494B4801F01CF902F0A1
:10038000B9FA28220120574900F04AFEFFF71CFF66
:100390002A46294603A8039500F022FE039B514CF0
:1003A000142B42D101226368013363604E4B1A70F3
:1003B000E06801F057FEFFF757FF00283FD001F03B
:1003C0006BFEA06801F030FE01F008FF054601F069
:1003D000CCFE281A02F05AFC1BA3D3E9002302F03A
:1003E000E9FD424ACDE900010A21414801F048F8FF
:1003F00001F0E4FED4E907320528D8BF1346A36113
:10040000FFF7B4FE002301223A49009311204FF078
:10041000FF3301F091FBFFF785FE374B1A78012A75
:100420001CBF02221A7005B030BD2A46294603A817
:10043000039500F0D5FD039B8C2BB9D1B2E701F0F9
:1004400037FEBEE7AFF30080000000000020AC40A4
:100450004C01002088470A08D80100208F470A086D
:100460004B4A0A089A470A0800000020A2470A08D7
:1004700010000020AB470A08E8010020B5470A0831
:10048000E4010020C1470A08EC010020CE470A0819
:10049000F0010020DD470A08F4010020EE470A08B9
:1004A000FF470A0829050A088B150A080C480A089C
:1004B000B5050A0819480A08C90A0A0826480A0898
:1004C000110C0A0834480A08290D0A083F480A088E
:1004D000A90D0A0849480A08850E0A0858480A085A
:1004E000190F0A08D4010020FC01002067480A08FF
:1004F000C0010020B9000A08D001002038B5046806
:1005000005467CB16368013B63605BB923682046A4
:100510009B689847A368013BA3601BB923682046EA
:10052000DB689847284638BD30B51A4985B005467E
:1005300001F0DEFC0446C8B10122174BDA70FFF768
:1005400037FE00F0FDFE60B100238DF80030134B44
:10055000134A1B7802A81349FFF7D7FD03A8FFF73A
:10056000CDFF0120104B187005B030BD28460F4953
:1005700001F0BEFC0028F7D0074BDC70FFF718FE37
:1005800000F0DEFE0028ECD0044B8DF800401B7814
:10059000074ADFE771480A08D40100209C010020C7
:1005A00073480A0896480A08FC01002084480A0893
:1005B00086480A0830B5294985B0054601F098FCFF
:1005C000044688B30124264D6C7001F0DFFD254BF5
:1005D0005B69984209DB2146022002F072F9102281
:1005E000214922482C7003F004FC0121072002F06D
:1005F00068F910221E491F4803F0FBFBFFF7D8FDE6
:1006000000F09EFE10B9012005B030BD00238DF82A
:100610000030194B02A81B78164A1849FFF775FDE0
:1006200003A8FFF76BFFEEE72846154901F060FCD1
:100630000028E9D00A4B214607205C7002F041F9FE
:10064000102210490B4803F0D4FBFFF7B1FD00F076
:1006500077FE0028D7D08DF80040DAE771480A0805
:10066000A8010020D40100209B480A0800000020B7
:10067000A2480A08100000209C010020AA480A088D
:1006800084480A08B7480A082DE9F04F2E4CDFF8D5
:10069000D0A0237885B013F0010FBFF35B8F0AD190
:1006A0002046FFF700FD30B101F07CFDCAF80000E4
:1006B0002046FFF7FDFC01F075FDDAF800309842A6
:1006C0003ED0FFF775FD00F03BFE60B100238DF8D2
:1006D00000301E4B02A81B781D4A1E49FFF715FD6E
:1006E00003A8FFF70BFF00251B4C47F22F58E570BE
:1006F0006560FFF7EFFC284600F0AAFC4FF0000908
:100700008346002000F0A4FCB0EB0B0661EB05076C
:10071000B94508BFB04505D3FFF7E6FC10B900F0B6
:1007200007FEEEE7FFF7E0FC01220C4B1A7001F028
:1007300039FD0528CCBFE369236ACAF80000A3612C
:1007400005B0BDE8F08F00BF980100209C0100209B
:10075000C0480A08C8480A08D4010020FC0100204B
:10076000A00100200E2330B5144D15492A78154CF0
:1007700003FB021220788FB003FB001300922821A4
:10078000114A04A800F07CFE2B782370FFF710FDBF
:100790000E4BDB787BB100F0D3FD60B100238DF808
:1007A00000300B4B02A81B780A4904AAFFF7ADFCE6
:1007B00003A8FFF7A3FE0FB030BD00BFD00100209B
:1007C00024000020CA010020D6480A08D4010020D5
:1007D0009C010020E4480A082DE9FF41A14D2B7837
:1007E000022B32D0032B55D0012B3FD19E4CE27807
:1007F0002AB19E4B1B78012B01D0FFF7B3FF00F00D
:10080000FFFB9B4B9B4A1B681268134483422DD20B
:100810006368032B00F3F180FFF7CAFC00F090FD42
:1008200060B100238DF80030934B944A1B7802A8E6
:100830009349FFF76AFC03A8FFF760FE4FF4FA60E4
:1008400000F03EFE01F076FB10E0874BDB782BB129
:10085000864B1B78022B01D0FFF784FF01F096FC3A
:10086000884B1B68984201D003232B70864B1B7862
:100870000BB1FFF77BFC854C237843B102F03AF8CB
:1008800028220120784900F0D3FB0023237004B014
:10089000BDE8F081744CE3782BB1744B1B78032BCB
:1008A00001D0FFF75FFF00F04BFD002839D001F0C9
:1008B0006DFC08B9FFF7E8FEFFF734FC0223744E25
:1008C0002B707778B046002F5AD001F05FFCA369F7
:1008D00098422CDB002407202146A8F8004001F0B4
:1008E000F0FF10226B496C4803F083FA2146022086
:1008F00001F0E7FF10226949694803F07AFAFFF72F
:1009000057FC00F01DFDE0B15B4B8DF800401B78FB
:10091000644A02A86449FFF7F8FB03A8FFF7EEFD5D
:100920000FE000F06DFB524B18600123C7E701F0A8
:100930002DFC23699842CDDB01F028FC63699842C5
:1009400005DA01F023FC4F4B186002238DE7347861
:10095000002CF6D101210220317001F0B2FF1022EB
:1009600052494F4803F045FAFFF722FC00F0E8FC3B
:100970000028E6D0404B8DF800401B784C4AC8E771
:1009800001F004FC236998421ADB012107207170F1
:1009900001F097FF102247493F4803F02AFAFFF77A
:1009A00007FC00F0CDFC58B1334B8DF8007002A865
:1009B0001B78414A3C49FFF7A8FB03A8FFF79EFDBF
:1009C00001F0E4FB63699842BBDB0121022088F857
:1009D000001001F076FF10223449314803F009FA83
:1009E000FFF7E6FB00F0ACFC0028AAD000238DF84E
:1009F0000030214B314A1B788BE701F0B6FB636A6C
:100A0000C01AB0F5E15F0DD9FFF7D2FB00F098FCFA
:100A100000283FF413AF00238DF80030164B284A0E
:100A20001B7804E7FFF7C4FB00F08AFC60B10023E9
:100A30008DF80030104B02A81B78224A1049FFF7AE
:100A400064FB03A8FFF75AFD4FF4FA6000F038FD8D
:100A50000023636001F04EFF28220120024900F0CC
:100A6000E7FAEFE6D0010020D4010020CA010020FF
:100A7000CC010020200000209C0100204C490A08E5
:100A800060490A08BC010020FD010020FC01002093
:100A9000A8010020B7480A0810000020F5480A08FD
:100AA00000000020FD480A0811480A089B480A086F
:100AB00013490A08A2480A0826490A0839490A08B7
:100AC00066490A0894490A082DE9F047CAB08046E9
:100AD000FFF700FB002000F0BBFA4FF0000A814650
:100AE00047F22F560027002000F0B2FAB0EB0904BD
:100AF00061EB0A05AF4208BFA64205D3FFF7F4FA3F
:100B000010B900F015FCEEE7FFF7EEFA0A22D8F86C
:100B1000000003A903F0FAF900F10C03DBB2182B73
:100B20005ED844B2204602F007FC314B986001F0D9
:100B30007BFA01222F4B1A7001F050FB054601F0A1
:100B400014FB281A02F0A2F827A3D3E9002302F02D
:100B500031FA294ACDE900010A21284800F090FC29
:100B600000F0EEFB002834D023464FF48071244A75
:100B70000AA800F085FCFFF71BFB00F0E1FB60B169
:100B800000238DF800301F4B06A81B781E490AAAC7
:100B9000FFF7BBFA07A8FFF7B1FCFFF709FB00F06E
:100BA000CFFBB0B101F0E1FA0246C31706A801F08D
:100BB00087FA00238DF80030124B069A1B781249F1
:100BC00004A8FFF7A2FA05A8FFF798FC06A801F011
:100BD00018F9032201200D4B1A704AB0BDE8F087C6
:100BE0000020FAE7AFF30080000000000020AC40D6
:100BF000D4010020FC01002067480A08C001002041
:100C0000B2490A089C010020C6490A08D001002008
:100C100030B5CBB0044601F0A8FA0A22054603A974
:100C2000206803F073F9C3B2022B66D840B202F019
:100C300083FB044601F016FA0122334B2046DC60A8
:100C4000324B1A7002F034F8314ACDE900014FF40A
:100C500080710AA800F014FC01F06AFA28B1FFF7CD
:100C600003FB002846D001F017FA01F0B7FA04465A
:100C700001F07BFA201A02F009F821A3D3E900233E
:100C800002F098F9234ACDE900010A21224800F038
:100C9000F7FB00F055FB38B300F052FB60B10023C6
:100CA0008DF800301D4B06A81B781D490AAAFFF7D6
:100CB0002CFA07A8FFF722FC00F042FBA0B12A465D
:100CC000EB1706A801F0FCF900238DF80030134B58
:100CD000069A1B78124904A8FFF717FA05A8FFF730
:100CE0000DFC06A801F08DF8032201200D4B1A70AF
:100CF0004BB030BD01F0DCF9B7E70020F8E700BFEA
:100D0000000000000020AC40D4010020FC010020C5
:100D1000CB490A0867480A08C00100209C0100204E
:100D2000C6490A08D001002000B5C7B00A220068F1
:100D300003A903F0EBF8C3B2182B27D80121144AFA
:100D400043B21361134A06A811704FF48071124A1E
:100D500000F096FBFFF72CFA00F0F2FA78B100F001
:100D6000EFFA60B100238DF800300C4B04A81B781B
:100D70000B4906AAFFF7C9F905A8FFF7BFFB032235
:100D80000120084B1A7047B05DF804FB0020FAE719
:100D9000D4010020FC010020DC490A089C0100204D
:100DA00011480A08D001002000B5C7B00A22006827
:100DB00003A903F0ABF8C3B2172B24D80121134ABF
:100DC00043B25361124A06A811704FF48071114A60
:100DD00000F056FBFFF7ECF900F0B2FA60B1002327
:100DE0008DF800300C4B04A81B780C4906AAFFF7BD
:100DF0008CF905A8FFF782FB03220120084B1A702B
:100E000047B05DF804FB0020FAE700BFD4010020E2
:100E1000FC010020F3490A089C01002011480A083F
:100E2000D0010020012200B5104BC5B01A70104B44
:100E30004FF48071DB690F4A04A800F021FB00F039
:100E40007FFA60B100238DF800300B4B02A81B78AD
:100E50000A4904AAFFF759F903A8FFF74FFB032239
:100E60000120074B1A7045B05DF804FBFC0100201F
:100E7000D4010020094A0A089C01002011480A08F0
:100E8000D001002013B50A22006801A903F03EF842
:100E9000C3B2182B0CD8074C40B2E06101F08EF9B8
:100EA0000528C4BFE369A361FFF7BCFF02B010BD12
:100EB0000020FBE7D4010020012200B5104BC5B093
:100EC0001A70104B4FF480711B6A0F4A04A800F08F
:100ED000D7FA00F035FA60B100238DF800300B4BE3
:100EE00002A81B780A4904AAFFF70FF903A8FFF725
:100EF00005FB03220120074B1A7045B05DF804FB87
:100F0000FC010020D40100202A4A0A089C0100208C
:100F100011480A08D001002013B50A22006801A96F
:100F200002F0F4FFC3B2182B0CD8074C40B2206279
:100F300001F044F90528DCBF236AA361FFF7BCFF79
:100F400002B010BD0020FBE7D401002070B50124E1
:100F50000026124B21461C70042000F039F80021B5
:100F6000204600F097F9204600F06CF90C4D0D4B2F
:100F70002046AB602E60AE80AE7100F07BF9284653
:100F8000094A0A4901F024FD3146204600F082F961
:100F90002146BDE87040042000F01AB89C010020F2
:100FA0008C0100200000FFFF48010020C5000A0856
:100FB00008B5024B1B685B6C019308BDD0010608A5
:100FC00008B5024B1B689B6C019308BDD001060855
:100FD00008B5024B1B685B6E019308BDB80106089B
:100FE00008B5024B1B68DB6E019308BDB80106080B
:100FF00008B5024B1B685B68019308BD9C0106089D
:1010000008B5024B1B685B69019308BD9C0106088B
:1010100008B5024B1B689B6A019308BD9C0106083A
:1010200008B5024B1B685B6C019308BD9C01060868
:1010300008B5024B1B689B6C019308BD9C01060818
:1010400008B5024B1B689B6D019308BD9C01060807
:1010500008B5024B1B68DB6D019308BD9C010608B7
:1010600008B5024B1B685B6E019308BD9C01060826
:1010700008B5024B1B689B68019308BDB0010608C8
:1010800008B5024B1B68DB68019308BDB001060878
:1010900008B5024B1B681B69019308BDB001060827
:1010A00008B5024B1B689B69019308BDB001060897
:1010B00008B5024B1B68DB69019308BDB001060847
:1010C00008B5024B1B681B6E019308BDAC010608F6
:1010D00008B5024B1B685B6E019308BDAC010608A6
:1010E00008B5024B1B689B6E019308BDAC01060856
:1010F00008B5024B1B68DB6E019308BDAC01060806
:1011000008B5024B1B681B6F019308BDAC010608B4
:1011100008B5024B1B685B6F019308BDAC01060864
:1011200008B5034B1B68D3F88030019308BD00005D
:10113000AC01060808B5024B1B68DB69019308BDCA
:10114000B401060808B5024B1B681B6A019308BD71
:10115000B401060808B5024B1B689B69019308BDE2
:10116000C401060808B5024B1B685B6A019308BD01
:10117000C401060808B5024B1B689B6A019308BDB1
:10118000C401060808B5024B1B68DB6A019308BD61
:10119000C401060808B5024B1B681B6B019308BD10
:1011A000C401060808B5024B1B685B6B019308BDC0
:1011B000C401060808B5024B1B689B6B019308BD70
:1011C000C401060808B5024B1B681B6C019308BDDF
:1011D000C401060808B5024B1B681B68019308BDD3
:1011E000D801060808B5024B1B681B69019308BDAE
:1011F000D801060808B5024B1B685B69019308BD5E
:10120000D801060808B5024B1B689B69019308BD0D
:10121000D801060808B5024B1B68DB69019308BDBD
:10122000D801060808B5024B1B681B6A019308BD6C
:10123000D801060808B5024B1B689B6C019308BDDA
:10124000C001060808B5024B1B681B6D019308BD61
:10125000C001060808B5024B1B685B6F019308BD0F
:10126000C001060808B5024B1B681B68019308BD46
:10127000A401060808B5024B1B685B68019308BD12
:10128000A401060808B5024B1B685B69019308BD01
:10129000A401060808B5024B1B68DB6A019308BD70
:1012A000A401060808B5024B1B68DB6C019308BD5E
:1012B000A401060808B5024B1B685B6D019308BDCD
:1012C000A401060808B5024B1B689B6D019308BD7D
:1012D000A401060808B5034B1B68D3F890300193AE
:1012E00008BD0000A401060808B5034B1B68D3F82D
:1012F0009C30019308BD0000A401060808B5034B0B
:101300001B68D3F8B430019308BD0000A40106089F
:1013100008B5024B1B681B68019308BDCC01060889
:1013200008B5024B1B685B68019308BDCC01060839
:1013300008B5024B1B689B68019308BDCC010608E9
:1013400008B5024B1B685B69019308BDCC01060818
:1013500008B5024B1B681B6A019308BDCC01060847
:1013600008B5024B1B68DB6A019308BDCC01060877
:1013700008B5024B1B681B6B019308BDCC01060826
:1013800008B5024B1B68DB6B019308BDCC01060856
:1013900008B5024B1B685B68019308BDC8010608CD
:1013A00008B5024B1B689B68019308BDC80106087D
:1013B00008B5024B1B68DB68019308BDC80106082D
:1013C00008B5024B1B681B69019308BDC8010608DC
:1013D00008B5024B1B685B69019308BDC80106088C
:1013E00008B5024B1B689B69019308BDC80106083C
:1013F00008B5024B1B68DB69019308BDC8010608EC
:1014000008B5024B1B681B6A019308BDC80106089A
:1014100008B5024B1B681B6B019308BDC801060889
:1014200008B5024B1B685B6B019308BDC801060839
:1014300008B5024B1B681B68019308BDA001060894
:1014400008B5024B1B685B68019308BDA001060844
:1014500008B5024B1B689B68019308BDA0010608F4
:1014600008B5024B1B681B69019308BDA001060863
:1014700008B5024B1B689B69019308BDA0010608D3
:1014800008B5024B1B68DB69019308BDA001060883
:1014900008B5024B1B68DB6A019308BDA001060872
:1014A00008B5024B1B681B6B019308BDA001060821
:1014B00008B5024B1B685B6C019308BDA0010608D0
:1014C0000021FFF7DFBE10B5836804460BB901F0B9
:1014D00088FAC3689847A3681BB1032221462046B7
:1014E00098472046BDE81040102101F076BA7047B9
:1014F0000020704710B50446102101F06EFA204616
:1015000010BD08B5FFF7F6FF08BD10B583680446A7
:1015100013B1032201469847204610BD002230B582
:101520004FF69C74026084808D888C800C68858066
:1015300004600A6030BD10B504460068FFF780FF04
:10154000204610BD38B5C468F4B12378022B03D10E
:1015500004F10C00FFF7EFFF656835B12846FFF78F
:10156000D4FF1021284601F038FAA56835B1284685
:10157000FFF7CBFF1021284601F02FFA2046BDE8E7
:101580003840142101F029BA38BD10B588B004469E
:10159000684600F080FC694604A800F09EFC04A8A0
:1015A000A047044604A800F02CFC684600F029FC83
:1015B000204608B010BD1FB500231024CDE902015C
:1015C000019269461A461846ADF80230ADF800405F
:1015D000FFF7A6FE04B010BD0B68036013B15A6894
:1015E00001325A60704773B50E46044656F8043B04
:1015F0000D4601A831460093FFF7EEFF009B019ACC
:1016000023600023626001A801930093FEF776FF38
:101610003046FEF773FF2846082101F0DEF9204628
:1016200002B070BD13B56C460B46024603C884E891
:10163000030093E8030082E8030094E8030083E8D2
:10164000030002B010BD826810B50AB901F0C9F9F3
:10165000C368BDE81040184708B5006800F11001E4
:10166000FFF7F1FF08BD826810B50AB901F0B9F9BA
:10167000C368BDE81040184708B5006800F11001C4
:10168000FFF7F1FF08BD000038B5002304460360F2
:1016900010200D46FEF701FD28B10123C0E90133FA
:1016A000024BC56003602060204638BD5C4A0A08D2
:1016B00038B5002383608B6804460D462BB10222A7
:1016C0009847EB68E360AB68A360204638BD000034
:1016D000F0B589B004686846FFF720FF4FF00203B9
:1016E000D4E84F2F002A03D1C4E8413F0029F7D1A5
:1016F00025D104F10C0569462846FFF70FFF0123A9
:10170000BFF35B8F63700020BFF35B8F04F10803AE
:1017100053E8006F43E80002002AF9D1BFF35B8F62
:101720006EB1FFF7BFFD78B129463046FFF78BFF5A
:101730003046FFF7EAFE1021304601F04EF96846C8
:10174000FFF7F9FE09B0F0BD314602A8FFF7B0FF80
:10175000E068B4F9105008B102F016FB06901020B2
:10176000ADF81C50FEF799FC0546E8B100278760EC
:101770001820FEF792FC044688B10146876002A853
:10178000FFF750FF049BA268A360059B0492E268E8
:1017900006A9E36004F110000592FFF7BFFE084BB5
:1017A0002C60EB60074BAB6006A8FFF7C4FE02A8F5
:1017B000FFF7ABFE002229460348FFF77BFDB7E7A2
:1017C00059160A08F1180A08C7140A082DE9F04743
:1017D0008AB005460C46174698469DF84890FFF794
:1017E000AFFD07AE824638BB4FF62E73059005A9B4
:1017F0003046ADF81830FFF791FE1420FEF74DFC8F
:10180000044648B1022303700123C0E901AA4370D2
:1018100031460C30FFF782FE2846214640F8044B43
:10182000FFF732FF3046FFF786FE05A8FFF783FE7D
:1018300028460AB0BDE8F0870C234FF0000A1420B8
:10184000CDE908AA0793FEF728FC014628B1C0E9B4
:1018500001AA80F800A080F801A004A80391FFF776
:1018600013FF224B08200893FEF717FC824628B18D
:10187000039B04A940F8043BFFF7AEFE42463946FD
:10188000204600965FFA89F3CDF824A0FFF760FDAB
:10189000B8B9039B5B7803F0FF0293B94FF69C73D2
:1018A00005A903A80592ADF81830FFF711FF05A8A8
:1018B000FFF741FE05A80999FFF795FE06A8FEF778
:1018C0001DFE039B04A906A80593FFF785FE059B53
:1018D000069A2B6000236A6006A806930593FEF71C
:1018E0000DFE04A8FEF70AFEA2E700BFB5190A081C
:1018F000022AF8B5054607D0032A18D0012A01D1DB
:101900000B6803600020F8BD18200E68FEF7C5FBC9
:10191000044650B13146FFF7CBFE3069B6F914707A
:1019200008B102F031FA2061A7822C60EAE704686E
:10193000002CE7D004F11000FFF7FDFD2046FFF773
:10194000E4FD1821204601F048F8DBE738B5002314
:1019500083608B6804460D462BB102229847EB68E2
:10196000E360AB68A360204638BD022A70B5044628
:1019700007D0032A12D0012A01D10B68036000208E
:1019800070BD14200E68FEF788FB054620B1314675
:10199000FFF7DCFF337C2B742560F0E70468002C34
:1019A000EDD02046FFF7B1FD1421204601F015F8D7
:1019B000E5E70000F0B5044689B00D4601A81146E0
:1019C000FFF711FEA4B124B21DB1284602F0DCF9E4
:1019D000054601A803A90395ADF81040FFF778FE6E
:1019E00003A8FFF7A8FD02A8FEF788FD09B0F0BD27
:1019F0000123019DD5E84F2F002A03D1C5E8413FBF
:101A00000029F7D1EFD12B73BFF35B8F6B70BFF35E
:101A10005B8F2B1D53E8006F43E80042002AF9D189
:101A2000BFF35B8F002EDED02046FFF73BFC07465E
:101A300060B1304605F10C01FFF715FE3046FFF7A7
:101A400064FD1021304600F0C8FFCCE7314603A802
:101A5000FFF77CFF2B7B10208DF81C30FEF71DFB61
:101A60000546D0B187601420FEF717FB044678B115
:101A70000146876003A8FFF7D5FD059BA268A36018
:101A8000069B0592E268E3609DF81C300692237481
:101A9000064B2C60EB60064BAB6003A8FFF735FDEF
:101AA000002229460348FFF705FCC7E779160A0814
:101AB0006B190A08C7140A087047F8B50646154698
:101AC0000C468F18BC4206D0336830469B6814F829
:101AD000011B9847F6E72846F8BD0022007CFFF777
:101AE000EFBA0021007CFFF7F3BA0021007CFFF77A
:101AF000F7BA0021007CFFF7FBBA0021007CFFF75A
:101B0000FFBA10B50446142100F067FF204610BD4F
:101B100010B54FF47A73044608460021C4E9011356
:101B2000034B114623602074FFF7FAFA204610BDDC
:101B3000784A0A08004700002DE9FF4100241D46AD
:101B40000F4690460646FFF7B3FA0423A5428DF8E8
:101B50000C30A8BF9DF82830ADF80D408DF80F402F
:101B6000A4BF03AC8DF80E303A46434630460649D2
:101B70000094A8BF8DF80D50FFF792FAB0FA80F0EC
:101B8000400904B0BDE8F081351B0A08704710B564
:101B90000446182100F021FF204610BDF8B50E467E
:101BA000002400F10807051D17F8011D0A22304620
:101BB00000F0E7F8AF42044401D12046F8BD002C04
:101BC000F2D02E21304600F0D9F80444ECE70000B2
:101BD00010B50446044B1122002140F8043B02F0EA
:101BE00095F8204610BD00BFA04A0A080346074AE0
:101BF00010B543F8042B01F1100251F8044B914247
:101C000043F8044BF9D10A781A7010BDA04A0A08AB
:101C1000024AC0E90021042202757047A04A0A085E
:101C200010B59DF8084044EA0324042344EA024422
:101C300044EA01644460037510BD000037B5044DEB
:101C400005609DF818500095FFF7EAFF03B030BD1E
:101C5000A04A0A08014B024A1A607047000200209D
:101C6000AC4A0A08002340681A46FFF791BB0022DD
:101C700002214068FFF79CBB002240681146FFF735
:101C80008FBB002240681146FFF79ABB00234068D3
:101C90001A461946FFF79CBB002340681A461946AE
:101CA000FFF79EBB0022406881F00101FFF7A0BB57
:101CB00000224068FFF7ACBB002240681146FFF7E6
:101CC000AFBB002240681146FFF79ABB70B51546BE
:101CD0008EB0044608A8FFF77BFF1122002103A85D
:101CE00002F014F80026284602F069F80A4B009624
:101CF00081B25B68284603AAFFF79CFA30B13146EF
:101D00002046FFF785FF20460EB070BD204603A990
:101D1000FFF76CFFF7E700BFC4060020024B034A41
:101D20001A6000225A60704704020020B84A0A086C
:101D3000F8B506460D4600248F18BD420CD0336816
:101D400030469B6815F8011B9847031E01DB1C44B5
:101D5000F3E7002C08BF1C462046F8BD70B50546C9
:101D60000C46084649B102F02AF82B680246214683
:101D70002846BDE87040DB68184770BD03689B6863
:101D800018470023012A98BF0A2230B58BB00C46B1
:101D90008DF8243009A92546B4FBF2F404FB125354
:101DA000DBB2092B94BF30333733DBB2AA4201F8E0
:101DB000013DF0D9FFF7D2FF0BB030BD10B504469E
:101DC000FFF7A3FB204610BD00230348034A044944
:101DD000836000F0FDBD00BF0C0200204801002020
:101DE000BD1D0A0870B5002604460D4640F8086F70
:101DF000FFF7DEF828462570FFF79CF9204666605D
:101E000070BD10B504460068FFF71AFB204610BDF0
:101E100010B50446006808B1FFF712FB0023C4E9BF
:101E20000133236010BD38B504460D46006801310A
:101E3000FFF70EFB10B1C4E90005012038BD10B555
:101E40000368044623B143688B4201D3012010BDCF
:101E50002046FFF7E8FF0028F9D0A368002BF5D152
:101E600022681370F2E770B50E4611460446154617
:101E7000FFF7E5FF20B92046FFF7CAFF204670BDF7
:101E80002A4631462068A56001F032FF0021226811
:101E9000A368D154F2E738B5002304460D46C0E9E3
:101EA00000338360037339B1084601F088FF294687
:101EB00002462046FFF7D7FF204638BD884210B5BE
:101EC0000B46044604D0096821B19A68FFF7CBFF9E
:101ED000204610BDFFF79CFFFAE7002310B504462B
:101EE000C0E9003383600373FFF7E8FF204610BDAD
:101EF00008B582683AB921B10878B0FA80F0400993
:101F000000E0012008BD006809B90078F5E701F09C
:101F100029FFF2E707B50B46002102460091012098
:101F20008C21FFF7EBF903B05DF804FB01460020BC
:101F3000FFF7F0BF0020FFF7F9BF000002220020EA
:101F400010B5084B084C1A60084B2060A080A071A7
:101F5000A360FFF78FF92046BDE81040044A054909
:101F600000F036BD280200201C0200200000FFFF08
:101F700048010020C5000A082DE9F041154ADFF8A4
:101F80006080D2E90032C01842EB0101124A8CB0E5
:101F9000D2E90032C61841EB0207D8E90023BB4260
:101FA00008BFB24213D003A96846CDE9006701F02B
:101FB000A9FD089B094D03F26C7303AC08930FCC89
:101FC0000FC50FCC0FC5C8E9006723682B600CB0A4
:101FD000BDE8F0816002002058020020300200209D
:101FE0006802002008B50020FFF7C2F928B1FFF70A
:101FF000A7F980F00100C0B208BD0120FCE7000095
:1020000008B5FFF7B9FF024B9869013008BD00BF62
:102010003002002008B5FFF7AFFF024B186901300E
:1020200008BD00BF3002002010B50A49044601F087
:1020300075FB68B92046084901F08EFB40B9074995
:10204000204601F0CDF901F091FB054BC3E90001F9
:1020500010BD00BF000040C10000604100006145AC
:102060006002002010B50021044601F057FB70B952
:102070004FF08041204601F06FFB40B904492046F3
:1020800001F0AEF901F072FB024BC3E9000110BD93
:102090000000614570000020034BD3E90001034BB1
:1020A000C3E90001704700BF700000205802002003
:1020B00000200021014BC3E90001704758020020B5
:1020C00030B50446184893B0D0E90010521840EBE0
:1020D000030316480025D0E90010521840EB030313
:1020E000CDE90023242200210DEB020001F00EFEB9
:1020F00009A9684601F006FD1622294603A80295A3
:1021000001F004FE02A909A801F0C8FC02A801F030
:1021100056FE12AB184400F8415C02A92046FFF7B6
:10212000BAFE204613B030BD6002002058020020E5
:1021300010B50020FEF784FF0446A0B9FFF792F81F
:10214000012810D12046FFF7BDF860B9FFF74AFF1C
:1021500010B9FFF7EDF8F9E7FFF744FFBDE81040CD
:102160000020FEF76DBF204610BD1FB5FFF7E0FF52
:1021700010220021684601F0C9FD00216846FEF7E3
:102180006FFF009805B05DF804FB000008B5FFF78D
:10219000ECFFC117FFF7F0FE014B986808BD00BFC8
:1021A0003002002008B5FFF7E0FFC117FFF7E4FE9B
:1021B000014BD86808BD00BF3002002008B5FFF70A
:1021C000D4FFBDE80840C117FFF71ABF08B5FFF7F5
:1021D000CCFFBDE80840C117FFF71CBF08B5FFF7EB
:1021E000C4FF034B034A1B6812681344184408BD1C
:1021F0006002002058020020024B1A68024B1A604D
:10220000704700BF6C0000202C0200207047417412
:10221000704708B5007CFEF7D5FF20EAE07008BDE6
:1022200008B5007CFEF7A6FF20EAE07008BD08B5FF
:10223000007CFEF7AFFF40EAE07008BD08B5007C07
:10224000FEF7A0FF40EAE07008BD007CFEF7AABFE1
:1022500070B5467C04460D462EB12946207CBDE86B
:102260007040FEF77FBF007CFEF7ACFF0028F4DC77
:10227000304670BD10B50446142100F0AEFB204678
:1022800010BD00004FF0000C10B504460846114682
:102290004FF47A72C4E901C2044A20742260012218
:1022A00062741A46FEF756FF204610BD084B0A0816
:1022B00038B50D4D2978BFF35B8F11F0010411D1B2
:1022C0002846FDF7F0FE68B12146084A084B094848
:1022D000FFF7D8FF2846FDF7EBFE074A07490548F8
:1022E00000F076FB034838BD700200207402002025
:1022F000F80200207C030020480100200D220A087B
:1023000041747047704708B50021007CFEF77AFFE2
:1023100040EAE07008BD08B50121007CFEF772FFBD
:1023200040EAE07008BD08B5007CFEF763FF20EAD4
:10233000E07008BD08B5007CFEF754FF20EAE070AD
:1023400008BD38B50446007C0D46FEF753FF002853
:1023500001DC607C28B12946207CFEF75BFF20EA87
:10236000E07038BD007CFEF75DBF10B50446142157
:1023700000F033FB204610BD10B54FF47A730446CD
:1023800008460021C4E90113044B20742360012393
:1023900011466374FEF71EFF204610BD384B0A0835
:1023A00010B504461422002101F0B0FC054B204674
:1023B0006360054BE36040F2011323818123238294
:1023C00010BD00BFC0030020C104002030B50F4D78
:1023D00087B001A8FFF7E4FF2978BFF35B8F11F006
:1023E000010410D12846FDF75EFE60B1214601AA26
:1023F0000748FFF7C1FF2846FDF75AFE054A064980
:10240000034800F0E5FA024807B030BD9003002011
:10241000980300204801002005230A0810B504464F
:102420001422002101F072FC054B20466360054B2D
:10243000E36040F2011323818123238210BD00BF9A
:10244000420500204306002010B50F4C86B001A8BD
:10245000FFF7E4FF2378BFF35B8FDB0710D4204640
:10246000FDF721FE60B1012101AA0848FFF784FFB2
:102470002046FDF71DFE064A0649044800F0A8FA6A
:10248000024806B010BD00BF94030020AC0300203A
:102490004801002005230A087047012070470022E8
:1024A00040681146FEF78CBF10B50446242100F0A9
:1024B00094FA204610BDF0B5154689B011220E469B
:1024C0000446002103A801F021FC284601F077FC16
:1024D000002781B273682846009703AAFEF7AAFE78
:1024E00030B139462046FFF793FB204609B0F0BDD6
:1024F000204603A9FFF77AFBF7E700224068114660
:10250000FEF77EBF002240681146FEF789BF002219
:102510004068FEF77DBF0022406881F00101FEF7B0
:1025200067BF002340681A461946FEF759BF0023CB
:1025300040681A461946FEF74BBF00224068114614
:10254000FEF72EBF002202214068FEF731BF0023B4
:1025500040681A46FEF71CBF08B583895BB1406925
:10256000002808DB00F0E8FE044900F0EDFF044914
:1025700000F036FF08BD0348FCE700BF00FF7F47BF
:102580000000C842000080BF08B583894BB10069D4
:10259000B0F1004F05D000F0CFFE034900F0D4FFAA
:1025A00008BD0020FCE700BF0000C84208B58389D1
:1025B0005BB1006A002808DB00F0BEFE044900F0B1
:1025C000C3FF044900F00CFF08BD0348FCE700BF4F
:1025D00000FF7F470000C842000080BF08B5838924
:1025E0004BB18069B0F1004F05D000F0A5FE034962
:1025F00000F0AAFF08BD0020FCE700BF0000C842B1
:1026000070B50C46064600F10C050FCC0FC594E8DA
:10261000030085E8030033690120B3F1004F16BFC2
:102620006422022393FBF2F37360B369B3F1004FAA
:1026300016BF6422002393FBF2F3B36070BD000069
:102640002DE9F04100254FF0020818260F46144BE3
:1026500032462946C0E9018586B0036004460C3045
:1026600001F054FB2A4629467868FEF7A9FE80B19E
:1026700032462946684601F049FB2A466946284603
:10268000ADF80060FEF7E6FD38B969462046FFF771
:10269000B7FF204606B0BDE8F081C4F80480F8E733
:1026A0009C4B0A080422024B5A60024A1A60704787
:1026B000C4060020684B0A08014B1860704700BF31
:1026C0007800002008B5134B43B1FFF77FFE036885
:1026D0001B699847002801DDAFF300800E4B43B122
:1026E000FFF7E6FD03681B699847002801DDAFF39B
:1026F00000800A4B0BB1AFF30080094B43B1FFF7E9
:10270000A3FE03681B699847002801DDAFF3008032
:1027100008BD00BF00000000000000000000000035
:102720000000000008B5FFF7CDFFFEF769FC014B84
:10273000186008BDE40600200248034A0349121A43
:1027400001F0D6BA0040024004400240E84D0A08B9
:10275000002307B51A466FF077010093FEF7C4FD1A
:1027600003B05DF804FB000007B543880A2B08D0CE
:10277000502B0BD1094B1B684BB103B05DF804EB38
:102780001847FFF7E5FF03B05DF804FB00231A4686
:102790006FF077010093FEF7A7FDF4E7D006002065
:1027A00038B5124C00211248FEF782FE114D236805
:1027B000AB420CBF012200220F4B1A7002D0FFF770
:1027C000BBFF2560FEF714FC044601F0A7FA0B4B93
:1027D00013B12046AFF3008000210848FEF7D0FD7A
:1027E000BDE8384000210648FEF774BD00400240B5
:1027F000B9260A081E1C279ACC06002000000000FB
:1028000069270A0810B50446806808B1FEF7D8FBAE
:10281000204610BD172870B5044601D9002070BDB0
:10282000A0F10D03022B0BD9012826D800F090F857
:102830000021007CFEF76CFC80F00100C0B2EEE7E6
:10284000134E3178BFF35B8F11F001050FD1304685
:10285000FDF729FC58B129460E48FFF7C3FA304668
:10286000FDF726FC0C4A0D490A4800F0B1F8094B67
:102870001878FEF767FC0028D0D1123C012C05D84F
:10288000FFF716FD007CFEF795FCD5E70120C6E7B3
:10289000D4060020D80600204801002005280A0898
:1028A000172838B504460D460AD8FF2908D0FFF787
:1028B000B1FF28B129462046BDE83840FEF7D8BB15
:1028C00038BD38B504460D46FEF7DAFBFF2810D0B8
:1028D000062804D84D2323FA00F0C30709D4204664
:1028E000FFF798FF28B129462046BDE83840FEF79B
:1028F000CFBB38BD10B5084C2378BFF35B8FDB0727
:1029000008D42046FDF7CFFB20B1FEF781FB20461F
:10291000FDF7CEFB014810BDE8060020EC060020C4
:10292000002370B5202543801423084E04460380FD
:10293000314685600561284600F051F831466060F7
:10294000284600F04CF8E060204670BDB84B0A08FD
:1029500030B50F4D87B02978BFF35B8F11F00104BC
:1029600013D12846FDF79FFB78B101A8FFF7D8FFE8
:10297000214601AA0748FFF7CBF82846FDF798FB48
:10298000054A0649034800F023F8024807B030BD65
:10299000F0060020F406002048010020B91A0A08B9
:1029A000002313B5074C1A46194620460093FFF73B
:1029B00045F92046044A054902B0BDE8104000F040
:1029C00007B800BF08070020480100208D1B0A0837
:1029D0000B460146184601F087B8FDF762BBFDF7CC
:1029E0005EBB08B5FEF754FD81F0004102E000BF78
:1029F00083F0004330B54FEA41044FEA430594EABF
:102A0000050F08BF90EA020F1FBF54EA000C55EAF9
:102A1000020C7FEA645C7FEA655C00F0E2804FEACA
:102A20005454D4EB5555B8BF6D420CDD2C4480EAAC
:102A3000020281EA030382EA000083EA010180EADC
:102A4000020281EA0303362D88BF30BD11F0004F2A
:102A50004FEA01314FF4801C4CEA113102D0404260
:102A600061EB410113F0004F4FEA03334CEA13339B
:102A700002D0524263EB430394EA050F00F0A780B3
:102A8000A4F10104D5F1200E0DDB02FA0EFC22FAAE
:102A900005F2801841F1000103FA0EF2801843FAA2
:102AA00005F359410EE0A5F120050EF1200E012A93
:102AB00003FA0EFC28BF4CF0020C43FA05F3C018D1
:102AC00051EBE37101F0004507D54FF0000EDCF14A
:102AD000000C7EEB00006EEB0101B1F5801F1BD3F3
:102AE000B1F5001F0CD349085FEA30004FEA3C0CF7
:102AF00004F101044FEA445212F5800F80F09A80ED
:102B0000BCF1004F08BF5FEA500C50F1000041EBF0
:102B1000045141EA050130BD5FEA4C0C404141EBF4
:102B20000101013C28BFB1F5801FE9D291F0000FEF
:102B300004BF01460020B1FA81F308BF2033A3F19E
:102B40000B03B3F120020CDA0C3208DD02F1140C95
:102B5000C2F10C0201FA0CF021FA02F10CE002F1D0
:102B60001402D8BFC2F1200C01FA02F120FA0CFCC9
:102B7000DCBF41EA0C019040E41AA2BF01EB045112
:102B8000294330BD6FEA04041F3C1CDA0C340EDC10
:102B900004F11404C4F1200220FA04F001FA02F353
:102BA00040EA030021FA04F345EA030130BDC4F111
:102BB0000C04C4F1200220FA02F001FA04F340EA06
:102BC0000300294630BD21FA04F0294630BD94F0B7
:102BD000000F83F4801306BF81F480110134013D9E
:102BE0004EE77FEA645C18BF7FEA655C29D094EA0F
:102BF000050F08BF90EA020F05D054EA000C04BF8D
:102C00001946104630BD91EA030F1EBF0021002077
:102C100030BD5FEA545C05D14000494128BF41F016
:102C2000004130BD14F580043CBF01F5801130BD7A
:102C300001F0004545F0FE4141F470014FF0000005
:102C400030BD7FEA645C1ABF194610467FEA655CB6
:102C50001CBF0B46024650EA013406BF52EA033558
:102C600091EA030F41F4002130BD00BF90F0000F46
:102C700004BF0021704730B54FF4806404F1320482
:102C80004FF000054FF0000150E700BF90F0000F3B
:102C900004BF0021704730B54FF4806404F1320462
:102CA00010F0004548BF40424FF000013EE700BF32
:102CB00042004FEAE2014FEA31014FEA02701FBFC2
:102CC00012F07F4393F07F4F81F06051704732F0F4
:102CD0007F4208BF704793F07F4F04BF41F400214B
:102CE000704730B54FF4607401F0004521F00041A9
:102CF0001CE700BF50EA010208BF704730B54FF033
:102D000000050AE050EA010208BF704730B511F033
:102D1000004502D5404261EB41014FF4806404F16B
:102D200032045FEA915C3FF4D8AE4FF003025FEAF1
:102D3000DC0C18BF03325FEADC0C18BF033202EB75
:102D4000DC02C2F1200300FA03FC20FA02F001FACF
:102D500003FE40EA0E0021FA02F11444BDE600BF72
:102D600070B54FF0FF0C4CF4E06C1CEA11541DBF21
:102D70001CEA135594EA0C0F95EA0C0F00F0DEF8EC
:102D80002C4481EA030621EA4C5123EA4C5350EAD1
:102D9000013518BF52EA033541F4801143F4801322
:102DA00038D0A0FB02CE4FF00005E1FB02E506F0B3
:102DB0000042E0FB03E54FF00006E1FB03569CF008
:102DC000000F18BF4EF0010EA4F1FF04B6F5007F0E
:102DD00064F5407404D25FEA4E0E6D4146EB060680
:102DE00042EAC62141EA55514FEAC52040EA5E5009
:102DF0004FEACE2EB4F1FD0C88BFBCF5E06F1ED8B3
:102E0000BEF1004F08BF5FEA500E50F1000041EBE9
:102E1000045170BD06F0004646EA010140EA020096
:102E200081EA0301B4EB5C04C2BFD4EB0C0541EAB8
:102E3000045170BD41F480114FF0000E013C00F3CD
:102E4000AB8014F1360FDEBF002001F0004170BDF1
:102E5000C4F10004203C35DA0C341BDC04F114040A
:102E6000C4F1200500FA05F320FA04F001FA05F296
:102E700040EA020001F0004221F0004110EBD37063
:102E800021FA04F642EB06015EEA430E08BF20EA8F
:102E9000D37070BDC4F10C04C4F1200500FA04F332
:102EA00020FA05F001FA04F240EA020001F00041C4
:102EB00010EBD37041F100015EEA430E08BF20EA37
:102EC000D37070BDC4F1200500FA05F24EEA020E7F
:102ED00020FA04F301FA05F243EA020321FA04F0AE
:102EE00001F0004121FA04F220EA020000EBD37065
:102EF0005EEA430E08BF20EAD37070BD94F0000F65
:102F00000FD101F00046400041EB010111F4801F98
:102F100008BF013CF7D041EA060195F0000F18BF49
:102F2000704703F00046520043EB030313F4801F85
:102F300008BF013DF7D043EA0603704794EA0C0F3F
:102F40000CEA135518BF95EA0C0F0CD050EA410655
:102F500018BF52EA4306D1D181EA030101F00041D2
:102F60004FF0000070BD50EA410606BF10461946FA
:102F700052EA430619D094EA0C0F02D150EA013606
:102F800013D195EA0C0F05D152EA03361CBF104647
:102F900019460AD181EA030101F0004141F0FE41E6
:102FA00041F470014FF0000070BD41F0FE4141F46A
:102FB000780170BD70B54FF0FF0C4CF4E06C1CEA6A
:102FC00011541DBF1CEA135594EA0C0F95EA0C0F1F
:102FD00000F0A7F8A4EB050481EA030E52EA0335DA
:102FE0004FEA013100F088804FEA03334FF08055FB
:102FF00045EA131343EA12634FEA022245EA111528
:1030000045EA10654FEA00260EF000419D4208BFD8
:10301000964244F1FD0404F5407402D25B084FEA85
:103020003202B61A65EB03055B084FEA32024FF431
:1030300080104FF4002CB6EB020E75EB030E22BF8E
:10304000B61A754640EA0C005B084FEA3202B6EB4E
:10305000020E75EB030E22BFB61A754640EA5C00FD
:103060005B084FEA3202B6EB020E75EB030E22BF8D
:10307000B61A754640EA9C005B084FEA3202B6EB8E
:10308000020E75EB030E22BFB61A754640EADC004D
:1030900055EA060E18D04FEA051545EA16754FEAAF
:1030A00006164FEAC30343EA52734FEAC2025FEACD
:1030B0001C1CC0D111F4801F0BD141EA00014FF05C
:1030C00000004FF0004CB6E711F4801F04BF01432D
:1030D0000020B4F1FD0C88BFBCF5E06F3FF6AFAE49
:1030E000B5EB030C04BFB6EB020C5FEA500C50F1D9
:1030F000000041EB045170BD0EF0004E4EEA11315C
:1031000014EB5C04C2BFD4EB0C0541EA045170BD62
:1031100041F480114FF0000E013C90E645EA060EA6
:103120008DE60CEA135594EA0C0F08BF95EA0C0FD4
:103130003FF43BAF94EA0C0F0AD150EA01347FF41C
:1031400034AF95EA0C0F7FF425AF104619462CE7F3
:1031500095EA0C0F06D152EA03353FF4FDAE104656
:10316000194622E750EA410618BF52EA43067FF4A7
:10317000C5AE50EA41047FF40DAF52EA43057FF437
:10318000EBAE12E74A0011D212F5001211D20DD5A2
:103190006FF47873B3EB62520ED44FEAC12343F05D
:1031A000004343EA505323FA02F070474FF0000007
:1031B000704750EA013002D14FF0FF3070474FF0B6
:1031C0000000704780F0004002E000BF81F0004145
:1031D00042001FBF5FEA410392EA030F7FEA226CBD
:1031E0007FEA236C6AD04FEA1262D2EB1363C1BF4D
:1031F000D218414048404140B8BF5B42192B88BFBC
:10320000704710F0004F40F4000020F07F4018BFDE
:10321000404211F0004F41F4000121F07F4118BFFE
:10322000494292EA030F3FD0A2F1010241FA03FCA6
:1032300010EB0C00C3F1200301FA03F100F000438E
:1032400002D5494260EB4000B0F5000F13D3B0F156
:10325000807F06D340084FEA310102F10102FE2AC5
:1032600051D2B1F1004F40EBC25008BF20F0010035
:1032700040EA03007047490040EB0000013A28BFD4
:10328000B0F5000FEDD2B0FA80FCACF1080CB2EB57
:103290000C0200FA0CF0AABF00EBC25052421843D5
:1032A000BCBFD0401843704792F0000F81F400017A
:1032B00006BF80F400000132013BB5E74FEA41034D
:1032C0007FEA226C18BF7FEA236C21D092EA030FB9
:1032D00004D092F0000F08BF0846704790EA010F33
:1032E0001CBF0020704712F07F4F04D1400028BF60
:1032F00040F00040704712F100723CBF00F5000042
:10330000704700F0004343F0FE4040F40000704777
:103310007FEA226216BF08467FEA23630146420223
:1033200006BF5FEA412390EA010F40F48000704736
:103330004FF0000304E000BF10F0004348BF4042DC
:103340005FEA000C08BF704743F0964301464FF018
:1033500000001CE050EA010208BF70474FF0000374
:103360000AE000BF50EA010208BF704711F00043B5
:1033700002D5404261EB41015FEA010C02BF844685
:103380000146002043F0B64308BFA3F18053A3F5E4
:103390000003BCFA8CF2083AA3EBC25310DB01FA2B
:1033A00002FC634400FA02FCC2F12002BCF1004FAF
:1033B00020FA02F243EB020008BF20F00100704740
:1033C00002F1200201FA02FCC2F1200250EA4C0094
:1033D00021FA02F243EB020008BF20EADC707047DA
:1033E0004FF0FF0C1CEAD0521EBF1CEAD15392EAE8
:1033F0000C0F93EA0C0F6FD01A4480EA010C4002C4
:1034000018BF5FEA41211ED04FF0006343EA50101D
:1034100043EA5111A0FB01310CF00040B1F5000F5F
:103420003EBF490041EAD3715B0040EA010062F10E
:103430007F02FD2A1DD8B3F1004F40EBC25008BFF8
:1034400020F00100704790F0000F0CF0004C08BF16
:1034500049024CEA502040EA51207F3AC2BFD2F1E3
:10346000FF0340EAC250704740F400004FF00003F1
:10347000013A5DDC12F1190FDCBF00F0004070472B
:10348000C2F10002410021FA02F1C2F1200200FA69
:1034900002FC5FEA310040F1000053EA4C0308BF30
:1034A00020EADC70704792F0000F00F0004C02BF81
:1034B000400010F4000F013AF9D040EA0C0093F0FC
:1034C000000F01F0004C02BF490011F4000F013B56
:1034D000F9D041EA0C018FE70CEAD15392EA0C0FC4
:1034E00018BF93EA0C0F0AD030F0004C18BF31F02F
:1034F000004CD8D180EA010000F00040704790F005
:10350000000F17BF90F0004F084691F0000F91F0A8
:10351000004F14D092EA0C0F01D142020FD193EA6E
:103520000C0F03D14B0218BF084608D180EA0100F6
:1035300000F0004040F0FE4040F40000704740F0D2
:10354000FE4040F4400070474FF0FF0C1CEAD052A0
:103550001EBF1CEAD15392EA0C0F93EA0C0F69D0FC
:10356000A2EB030280EA010C49024FEA402037D067
:103570004FF0805343EA111143EA10130CF000405E
:103580008B4238BF5B0042F17D024FF4000C8B424E
:1035900024BF5B1A40EA0C00B3EB510F24BFA3EB2E
:1035A000510340EA5C00B3EB910F24BFA3EB9103FE
:1035B00040EA9C00B3EBD10F24BFA3EBD10340EA58
:1035C000DC001B0118BF5FEA1C1CE0D1FD2A3FF69E
:1035D00050AF8B4240EBC25008BF20F00100704753
:1035E0000CF0004C4CEA50207F32C2BFD2F1FF03F6
:1035F00040EAC250704740F400004FF00003013A27
:1036000037E792F0000F00F0004C02BF400010F4CA
:10361000000F013AF9D040EA0C0093F0000F01F0DE
:10362000004C02BF490011F4000F013BF9D041EA00
:103630000C0195E70CEAD15392EA0C0F08D1420233
:103640007FF47DAF93EA0C0F7FF470AF084676E706
:1036500093EA0C0F04D14B023FF44CAF08466EE7DF
:1036600030F0004C18BF31F0004CCAD130F00042AD
:103670007FF45CAF31F000437FF43CAF5FE700BF05
:103680004FF0FF3C06E000BF4FF0010C02E000BF2E
:103690004FF0010C4DF804CD4FEA40024FEA4103D0
:1036A0007FEA226C18BF7FEA236C11D001B052EA86
:1036B000530C18BF90EA010F58BFB2EB030088BF4C
:1036C000C81738BF6FEAE17018BF40F001007047BB
:1036D0007FEA226C02D15FEA402C05D17FEA236C9D
:1036E000E4D15FEA412CE1D05DF8040B704700BFE4
:1036F000844608466146FFE70FB5FFF7C9FF00287B
:1037000048BF10F1000F0FBD4DF808EDFFF7F4FFB3
:103710000CBF012000205DF808FB00BF4DF808ED4C
:10372000FFF7EAFF34BF012000205DF808FB00BF6F
:103730004DF808EDFFF7E0FF94BF012000205DF891
:1037400008FB00BF4DF808EDFFF7D2FF94BF012042
:1037500000205DF808FB00BF4DF808EDFFF7C8FF3B
:1037600034BF012000205DF808FB00BF10B5002128
:103770000446FFF7D3FF20B92046BDE8104000F013
:1037800009B804F1004000F005F8404261EB410146
:1037900010BD00BFD0B5FFF78BFA00220B4B0646D9
:1037A0000F46FFF7DDFAFFF7EDFC0446FFF75EFA80
:1037B0000022074BFFF7D4FA02460B463046394643
:1037C000FFF716F9FFF7DEFC2146D0BD0000F03D03
:1037D0000000F0412DE9F047089E0D4604468E4654
:1037E000002B40F083808A42174647D9B2FA82F311
:1037F0004BB1C3F1200105FA03FE20FA01F19F400D
:1038000041EA0E0E9C404FEA1748BEFBF8FC1FFA37
:1038100087F908FB1CE20CFB09F0210C41EA02428B
:1038200090420AD9BA180CF1FF3180F01881904209
:1038300040F21581ACF1020C3A44121AB2FBF8F0D6
:1038400008FB102200FB09F1A4B244EA0244A142A1
:1038500009D93C1900F1FF3280F00381A14240F206
:10386000008102383C44641A002140EA0C401EB139
:103870000022DC40C6E90042BDE8F08702B9FFDE65
:10388000B2FA82F3002B4FD18D1A01214FEA124E6A
:103890001FFA82F8B5FBFEFC0EFB1C5508FB0CF072
:1038A000220C42EA0545A84207D97D190CF1FF32E6
:1038B00002D2A84200F2E98094462D1AB5FBFEF030
:1038C0000EFB105508FB00F8A4B244EA0544A045DD
:1038D00007D93C1900F1FF3202D2A04500F2D9808D
:1038E0001046A4EB080440EA0C40C0E78B4208D91C
:1038F000002E00F0B1800021C6E900050846BDE8B1
:10390000F087B3FA83F100294BD1AB4202D3824254
:1039100000F2B980841A65EB030301209E46002E55
:10392000AAD0C6E9004EA7E79F40C3F12002D140CC
:103930004FEA174EB1FBFEF01FFA87F80EFB10118D
:1039400024FA02F29D4000FB08FC2A43150C45EACC
:103950000145AC4504FA03F409D97D1900F1FF31A2
:1039600080F08F80AC4540F28C8002383D44A5EB5E
:103970000C05B5FBFEF10EFB115C01FB08F995B2DD
:1039800045EA0C45A94507D97D1901F1FF3274D2EA
:10399000A94572D902393D44A5EB090541EA004128
:1039A00078E7C1F120078B4022FA07FC4CEA030CB0
:1039B00025FA07F44FEA1C4EB4FBFEF91FFA8CF807
:1039C0000EFB194420FA07F309FB08FA8D401D434A
:1039D0002B0C43EA0444A24502FA01F200FA01F377
:1039E00009D91CEB040409F1FF3048D2A24546D99D
:1039F000A9F102096444A4EB0A04B4FBFEF00EFB37
:103A0000104400FB08FAADB245EA0444A24508D9C7
:103A10001CEB040400F1FF352DD2A2452BD902384E
:103A2000644440EA0940A0FB0289A4EB0A044C4527
:103A3000C6464D4619D316D05EB1B3EB0E0264EB09
:103A4000050404FA07F722FA01F31F43CC40C6E944
:103A500000740021BDE8F087314630460CE78C4603
:103A6000EBE61046FFE64345E6D2B8EB020E69EB03
:103A70000C050138E0E72846D3E711468CE781467C
:103A8000B9E7084673E7084649E7ACF1020C3D4444
:103A900013E702383C4424E7704700BF10B50C46DA
:103AA000416986B001F26C71036982690491016811
:103AB00003EB43030391416802EB420202918168E8
:103AC0000191C1682046009104490B4404490A440D
:103AD0000449FDF7C5FC204606B010BDEE4B0A08B0
:103AE000D94B0A08B94B0A0810B5044604481346D6
:103AF00020B10A4602202146AFF3008010BD00BF6E
:103B0000000000002DE9F0410C46074600F00AFDD8
:103B100021468046384600F009FD436904469A076D
:103B200003F26C7605D1642296FBF2F302FB136379
:103B30007BBB4FF4C87396FBF3F503FB1565B5FA31
:103B400085F56D093022684B02FB053500F016FB48
:103B500000F020FB654B1B6853B3D8F80430B34228
:103B600019D1D7E90067D8E90823D8F80010D1B9EE
:103B7000964277EB030323DAD8E91223964277EBD8
:103B80000303B4BF0123002323621BDBD8F82810F2
:103B90001AE00125D6E7304600F048FA0028E0D1C7
:103BA0004FF0FF3304E0964277EB030302DA002381
:103BB0002362EBE7D8E91223964277EB0303F6DAA8
:103BC00001232362D8F850104FF4616391FBF3F6A0
:103BD0003C2003FB161393FBF0F200FB12306168EC
:103BE0002368891AA2681B1A921B3B2B2360616011
:103BF000A26034DD013161603C3B236063683B2B94
:103C000033DD0132A2603C3B6360A368172B32DDD9
:103C1000E269183B0132E261A269A3600132062A1F
:103C2000C8BF0022A261E26823690132E26055F850
:103C300023108A420EDD0B2BA2EB0102E26003F19E
:103C4000010205BF002263692261013302BF2261C4
:103C50006361E26100F098FA2046BDE8F081002B34
:103C6000CCDA013961603C33C7E7002BCDDA013A89
:103C7000A2603C33C8E7002BECDAE2691833013A62
:103C8000E261A269A360013A48BF0622A261E2682C
:103C9000013AE260002ADDD12369013B05D42361AA
:103CA000236955F82330E360D4E70B23236163696C
:103CB0005A1E626103F26B72930705D1642192FB75
:103CC000F1F301FB132363B94FF4C87192FBF1F3D5
:103CD00001FB1323B3FA83F35B0903F5B673E361C6
:103CE000DEE70123F9E700BF144C0A083C07002077
:103CF0000A44914200F1FF3300D1704710B511F82A
:103D0000014B914203F8014FF9D110BD0346024423
:103D1000934200D1704703F8011BF9E738B50D4B0A
:103D200004461D68AB6B7BB91820FDF781FB0A4A7E
:103D30000A4BA863C0E90023094B012283600B23CF
:103D400083810023C0E904230022AB6B1C615A610C
:103D500038BD00BF780000200E33CDAB34126DE6C5
:103D6000ECDE050010F8012B11F8013B012A28BFF9
:103D70009A42F7D0D01A7047034611F8012B03F886
:103D8000012B002AF9D17047024B0146186800F058
:103D900003B800BF7800002070B5044608460D4601
:103DA00000F00DF8461C31462046FDF779FB04462D
:103DB00018B132462946FFF79BFF204670BD0346E7
:103DC00013F8012B002AFBD1181A0138704710B5DF
:103DD0006AB10139841810F8013B11F8012F9342A0
:103DE00003D1A04201D0002BF5D1981A10BD104686
:103DF000FCE7034610B5013932B111F8014F013A21
:103E000003F8014B002CF7D100211A44934200D152
:103E100010BD03F8011BF9E72DE9F0478C468646F3
:103E2000394E60461CF8014BA55D15F00805F8D128
:103E30002D2C33D14FF001089CF8004000F1020C0A
:103E4000002B5CD0102B0CD1302C0AD19CF8000038
:103E500000F0DF0058284DD110239CF801400CF1F0
:103E6000020C002608F10047013FB7FBF3F930468A
:103E700003FB197AA4F13005092D18D82C46A3426A
:103E800024DD751C07D081451DD301D1A2451ADB65
:103E9000012600FB03401CF8014BEBE72B2C08BF6D
:103EA0009CF80040A84608BF00F1020CC8E7A4F146
:103EB0004105192D01D8373CE1E7A4F16105192D21
:103EC00004D8573CDBE74FF0FF36E4E7731C06D11C
:103ED00022233846CEF8003042B9BDE8F087B8F169
:103EE000000F00D04042002AF7D00EB10CF1FF3194
:103EF0001160F2E73024002BB3D10823B1E7302C56
:103F0000A4D00A23ADE700BFB14C0A0813460A4605
:103F1000014602480068FFF77FBF00BF780000201D
:103F20002DE9F0438C4686463A4E60461CF8014B1C
:103F3000A55D15F00805F8D12D2C34D14FF00108FE
:103F40009CF8004000F1020C002B5ED0102B0CD12D
:103F5000302C0AD19CF8000000F0DF0058284FD127
:103F600010239CF801400CF1020C4FF0FF37B7FB17
:103F7000F3F7002503FB07F928466FEA0909A4F1C6
:103F80003006092E18D83446A34224DD002D1FDB4D
:103F900087421DD301D1A1451ADB012500FB034057
:103FA0001CF8014BEBE72B2C08BF9CF80040A846FF
:103FB00008BF00F1020CC7E7A4F14106192E01D891
:103FC000373CE1E7A4F16106192E04D8573CDBE742
:103FD0004FF0FF35E4E7002D07DA22234FF0FF30E2
:103FE000CEF8003042B9BDE8F083B8F1000F00D040
:103FF0004042002AF7D00DB10CF1FF311160F2E719
:104000003024002BB1D10823AFE7302CA2D00A23F3
:10401000ABE700BFB14C0A0813460A460146024806
:104020000068FFF77DBF00BF780000202DE9F74F43
:10403000804600F077FA40F2B173984540F39780DC
:104040006FF4F66340F26D1243449B10A8F2B27510
:1040500002FB05356FF06302A8F26D7393FBF2F378
:104060006FF4C8621D444FF4C8734244B2FBF3F2CC
:1040700098FBF3F71544642203FB178798FBF2F6CD
:10408000B7FA87FC04464FF0070E02FB168608F0CD
:104090000303C0F804804FEA5C1C00F1500B00934E
:1040A000227A63694A2A28D10099EA1801B906B927
:1040B0000FBB3B2BD4BF0023012313445A1EA3691B
:1040C0002C49283401FB0232236813441A46DB17BB
:1040D00044E90223A345E3D1D0E90845D0E91223FE
:1040E000944275EB0303B4BF012300230360012056
:1040F00003B0BDE8F08F0023DFE7442A01D1EA18BE
:10410000DDE7009A6ABB002E0CBFE0464FF00108C5
:104110004FF0300AE2684FF0000901922A46164932
:104120000AFB0818A8F10408019909F10109494599
:1041300058F829A017DC02F1040898FBFEF9C9EB36
:10414000C909A8EB0909B3EB0909236948BF09F1BB
:104150000709013BC3EBC3034B44534505DA1A443B
:10416000ADE7E046D4E75244DEE7073BF5E7002041
:10417000BEE700BF80510100144C0A08014800F05E
:1041800085BA00BF4F070020014800F081BA00BF88
:104190004F070020014B186800F002B8780000209B
:1041A0002DE9F04F8DB0074600F0BCF9B049054647
:1041B000384600F0AFF9AF4E044670B9AE4BAF4A87
:1041C0001860AF4B1860AF4B3068C3E90022FDF7B1
:1041D00037F934600DB0BDE8F08F316800295FD148
:1041E0003068FDF72DF92046FFF7E9FD411C384600
:1041F000FDF756F93060002857D123780AAE3A2BE4
:1042000008BF0134334620469F4AA049FDF730F9E4
:104210000028DFDD0A9BE718E35C2D2B49D14FF026
:10422000FF3401374FF000080DF1200A0DF11E0B8D
:1042300033463846CDE9016A95490396CDF800B07A
:1042400007AAADF81E80ADF82080FDF711F94045B2
:10425000C0DD3C21BDF81E30BDF82020DFF83C92C7
:1042600001FB03224FF46161BDF81C3001FB032305
:104270005C43854BAC62834C4A4623600A9B83496E
:104280001F4438463346FDF7F3F8404517DC2368F2
:10429000AA6A6360784B1A60794BC3F8008099E78B
:1042A000FFF760FD00289BD194E72146FFF764FDEE
:1042B000A3E72B2B4FF0010408BF0137B2E70A9B9D
:1042C000C4F80490FC18FB5C2D2B40F08C804FF060
:1042D000FF37013400232046ADF81C30ADF81E3006
:1042E000ADF820300A93CDE902A63346CDE900B6F9
:1042F000674907AAFDF7BCF800287ADCAF6AA7F582
:1043000061672F654FF000092F460A9B1C442378F4
:104310002C2B08BF013494F80080B8F14D0F7AD1EE
:104320000DF12603CDE9016309AB00932046334626
:10433000584903960DF12202FDF79AF803287FF4FD
:1043400049AFBDF822104B1E0B2B3FF643AFBDF813
:104350002420531E042B3FF63DAFBDF82630062B1C
:104360003FF638AFC7E9031287F808807B610A9BE4
:1043700004EB03080223ADF81C300023ADF81E3017
:10438000ADF820300A9398F800302F2B09D133462E
:104390004046CDE902A6CDE900B63F4907AAFDF7A0
:1043A00067F83C21BDF81E30BDF82020283701FBFE
:1043B00003224FF46161BDF81C3001FB032347F871
:1043C000103C0A9C4444B9F1000F21D06868FFF703
:1043D0002DFEAA6A284B1A602B6D9B1A18BF012369
:1043E000274A1360F6E62B2B4FF0010708BF013474
:1043F00070E73C21BDF81E30BDF8202001FB0322F0
:104400004FF46161BDF81C3001FB03235F4378E783
:104410004FF001097BE7B8F14A0F0ABF4346442336
:1044200001340A2220460BA90593FFF7F5FDDDF8BC
:104430002C80059BA045ADF8260014D14D23B9F181
:10444000000F07D103212B720223C5F81490C5E990
:1044500003138FE70B2285F830300123C5E90D23C4
:104460000023EB6386E780B23B72786182E700BF8E
:10447000744C0A083807002040070020774C0A08CF
:104480003C070020DC0000202B0700207B4C0A08A2
:104490009E4C0A088A4C0A089D4C0A0820070020F6
:1044A0002DE9F84F07468946164600F0F3F8184BF9
:1044B0001C689A4634B14B46984613F8011B39B133
:1044C0003D29F9D1384600F0EBF80020BDE8F88F1F
:1044D000A8EB0908A34654F8040B0028F2D0424682
:1044E0004946FFF774FC0028F4D154F8043C03EB70
:1044F000080513F808303D2BECD1DAF800303846C7
:10450000ABEB03039B10336000F0CAF8681CDDE7D7
:104510004001002007B501AAFFF7C2FF03B05DF814
:1045200004FB000000487047E80000202DE9F0413E
:10453000D0E900670C460023304639464F4A00F068
:10454000B5F839460546002330464C4A00F0AEF82F
:104550004FF46161002ABCBF02F5A83202F5C072B7
:10456000B2FBF1F301FB13224FF03C01A360B2FB5D
:10457000F1F301FB132222604FF0070205F52F2013
:10458000ACBF00F66C2000F66B206360C31C93FB8D
:10459000F2F2C2EBC2029B1A48BF07330028384927
:1045A000A361BDBFA0F50E33A3F52C7393FBF1F10E
:1045B00090FBF1F148F6AC6240F2B45C314B40F252
:1045C0006D1703FB0100B0FBF2F2B0FBFCF30244F9
:1045D000D21A2D4B6426B0FBF3F3D31AB3FBF7F5D5
:1045E000B3FBFCF3B5FBF6F2D31A0344992007FBA7
:1045F000153303EB830C0CF1020CBCFBF0F74FF00E
:10460000050878430230B0FBF8F003F1010EAEEB81
:10461000000040F2F95EF44594BF4FF0020C6FF0D9
:10462000090C67444FF4C87C0CFB0151012F98BF63
:104630000131B3F5997F0CD3A3F59973E36100239E
:10464000A1F26C71E060C4E9047120462362BDE808
:10465000F08115F0030F02D106FB12525AB94FF444
:10466000C876B5FBF6F206FB1252B2FA82F2520994
:104670003B331344E2E70122FAE700BF8051010017
:10468000B13A02004FC5FDFFB03A020070477047D3
:10469000704770470148FFF7FABF00BF4E07002080
:1046A0000148FFF7F6BF00BF4E0700207BB972B983
:1046B0000029BEBF00204FF0004106E008BF0028DF
:1046C0001CBF6FF000414FF0FF30FFF7E5B9ADF1CF
:1046D000080C6DE904CE002909DB002B1ADBFFF77B
:1046E00079F8DDF804E0DDE9022304B070474042C8
:1046F00061EB4101002B1BDBFFF76CF8DDF804E0F8
:10470000DDE9022304B0404261EB4101524263EB18
:1047100043037047524263EB4303FFF75BF8DDF856
:1047200004E0DDE9022304B0404261EB410170473F
:10473000524263EB4303FFF74DF8DDF804E0DDE997
:10474000022304B0524263EB4303704721000A087E
:1047500061000A0889000A088D000A0800000000AC
:1047600057694669205175616C6974793A20252E24
:10477000303266252520537472656E6774683A205E
:10478000252E3032662525005369676E616C005214
:1047900065736574436F756E740052656C65617303
:1047A00065006C6564506F7765720070756D705050
:1047B0006F776572004C6564204F6E20486F75728C
:1047C0000050756D70204F6E20486F757200506FED
:1047D000776572204F666620486F75720057656571
:1047E0006B656E64204F666620486F757200576572
:1047F000656B646179204F666620486F757200565C
:104800006572626F73652D4D6F64650050756D70D4
:104810002D436F6E74726F6C005365742D54696D07
:10482000657A6F6E65005365742D4453544F666608
:10483000736574005365742D50756D704F6E005321
:1048400065742D4C65644F6E005365742D57656516
:104850006B656E644F6666005365742D5765656BB6
:104860006461794F66660025322E316620555443C7
:1048700000310053657420566572626F7365204D78
:104880006F6465003000436C656172656420566535
:1048900072626F7365204D6F6465004C6564204FD4
:1048A0006E0050756D70204F6E0050756D702063F6
:1048B0006F6E74726F6C0050756D70204F6666007D
:1048C00052756E6E696E67004461696C7920436C45
:1048D00065616E75700046726F6D20257320746F70
:1048E000202573005374617465205472616E73697E
:1048F00074696F6E004C6564204F66660054757273
:104900006E65642065766572797468696E67206F7C
:104910006666005475726E6564206F6E20746865FB
:10492000204C454473005475726E6564206F6E2090
:104930007468652050756D70005475726E656420E2
:104940006F6E20746865204C656473004572726FE9
:1049500072205374617465202D2052657365740054
:10496000537461746500546F6F6B206C6F6E6720B9
:1049700073696E6365206C61737420776562686F1C
:104980006F6B20726573706F6E7365202D2052659A
:10499000736574004572726F722053746174652080
:1049A0002D20546F6F206D616E7920726573657470
:1049B000730054696D65207A6F6E65206F6666734B
:1049C00065742025690054696D6500445354206F57
:1049D00066667365742025322E31660050756D70E1
:1049E000204F6E20486F75722073657420746F209D
:1049F0002569004C6564204F6E20486F75722073E6
:104A0000657420746F202569005765656B656E6459
:104A100020506F776572204F666620486F75722050
:104A200073657420746F202569005765656B646138
:104A30007920506F776572204F666620486F7572D7
:104A40002073657420746F20256900302E33330085
:104A5000000000000000000000000000EF140A0841
:104A6000F5140A0845150A0803150A08F1140A087E
:104A70000000000000000000B91A0A08031B0A0821
:104A8000DB1A0A08BB1A0A08E31A0A08EB1A0A0812
:104A9000F31A0A08FB1A0A080000000000000000D0
:104AA0009D1B0A088D1B0A088F1B0A086170700085
:104AB0000000000000000000651C0A086F1C0A08C6
:104AC000791C0A08831C0A088D1C0A08991C0A080C
:104AD000A51C0A08B11C0A08B91C0A08C31C0A084C
:104AE000CD1C0A0825592D256D2D25645425483ADD
:104AF000254D3A2553257A0061736374696D65000D
:104B000000000000000000000D220A0875220A08BB
:104B100051220A08311D0A0821220A083D220A08EA
:104B20002F220A084B220A080F220A0813220A0819
:104B3000000000000000000005230A086B230A089B
:104B400043230A08311D0A0835230A0807230A08E7
:104B500017230A0865230A0827230A0801230A08DD
:104B600000000000000000004F250A0845250A0843
:104B70003B250A089F240A082F250A0823250A082E
:104B800017250A080F250A0805250A08FB240A0824
:104B9000B7240A08000000000000000099240A0859
:104BA000A9240A089B240A0859250A0889250A0805
:104BB000AD250A08DD250A0800252E337320252E91
:104BC000337325336420252E32643A252E32643A1D
:104BD000252E32642025640A0053756E4D6F6E5485
:104BE00075655765645468754672695361744A61A6
:104BF0006E4665624D61724170724D61794A756EA3
:104C00004A756C4175675365704F63744E6F764497
:104C1000656300001F0000001C0000001F00000072
:104C20001E0000001F0000001E0000001F0000000A
:104C30001F0000001E0000001F0000001E000000FA
:104C40001F0000001F0000001D0000001F000000EA
:104C50001E0000001F0000001E0000001F000000DA
:104C60001F0000001E0000001F0000001E000000CA
:104C70001F000000545A00474D54002531305B5E40
:104C8000302D392C2B2D5D256E004D256875256E38
:104C90002E256875256E2E256875256E002F2568D2
:104CA00075256E3A256875256E3A256875256E005E
:104CB00000202020202020202020282828282820EC
:104CC00020202020202020202020202020202020E4
:104CD000208810101010101010101010101010104C
:104CE000100404040404040404040410101010103C
:104CF0001010414141414141010101010101010106
:104D00000101010101010101010101011010101057
:104D100010104242424242420202020202020202D7
:104D2000020202020202020202020202101010102B
:104D30002000000000000000000000000000000053
:104D40000000000000000000000000000000000063
:104D50000000000000000000000000000000000053
:104D60000000000000000000000000000000000043
:104D70000000000000000000000000000000000033
:104D80000000000000000000000000000000000023
:104D90000000000000000000000000000000000013
:104DA0000000000000000000000000000000000003
:104DB000000000004D0F0A08551C0A081D1D0A08B6
:104DC000C91D0A083D1F0A08F9210A08A5260A0874
:104DD000A1290A08000000000000000000000000F7
:084DE000F4E9FF7F010000006F
:044DE80000000000C7
:104DEC004C6564204F666600000000000000000067
:104DFC0050756D70204F66660000000000000000CA
:104E0C0030750000496E697469616C697A650000DF
:104E1C0000004572726F720000000000000000007C
:104E2C0049646C6500000000000000000000436F46
:104E3C006E74726F6C000000000000000000000037
:104E4C00000000000000000000000000F84A0A0802
:104E5C00100E0000000000007C000020000000008C
:104E6C000000000000000000000000000000000036
:104E7C000000000000000000000000000000000026
:104E8C000000000000000000000000000000000016
:104E9C000000000000000000000000000000000006
:104EAC0000000000000000000000000000000000F6
:104EBC00000000000000000000000000774C0A0811
:104ECC00774C0A0800000000010000000000000000
:104EDC004A0000000000000000000000000000007C
:104EEC0000000000000000000000000000000000B6
:104EFC0000000000000000004A000000000000005C
:104F0C000000000000000000000000000000000095
:104F1C000000000000000000000000000000000085
:044F2C004407002016
:104F3000FFFFFFFF00000102030405060708090A3E
:104F40000B0C0D0E0F101112131415161718191A39
:084F50001B1C1D1E1F20280080
:044F58007856341241
:04000005080A0020C5
:00000001FF
